:020000040001F9
:10B0000058330020F5B001000FB1010011B101006B
:10B010000000000000000000000000000000000030
:10B0200000000000000000000000000013B101005B
:10B03000000000000000000015B1010017B1010080
:10B0400019B1010019B10100EDB4010019B10100FD
:10B0500019B10100000000006DB2010019B101003A
:10B0600019B1010019B1010019B1010019B10100B4
:10B0700019B1010019B1010019B1010019B10100A4
:10B0800019B1010005B4010019B1010019B10100A5
:10B0900025B4010019B101002DB4010019B101005E
:10B0A00019B1010019B1010000000000000000000A
:10B0B0000000000000000000000000000000000090
:10B0C0000348854600F0A2F800480047A9E30100C4
:10B0D00058330020401E00BF00BF00BF00BF00BFAC
:10B0E00000BF00BF00BF00BF00BF00BF00BFF1D165
:10B0F000704700000321094802680A4302600848BB
:10B1000002680A4302600748804707480047FEE795
:10B11000FEE7FEE7FEE7FEE7FEE70000240500404D
:10B12000540500404DB40100C1B0010030B50B46DC
:10B13000014600202022012409E00D46D5409D4211
:10B1400005D31D469540491B254695404019154697
:10B15000521E002DF1DC30BD70B5002425460028BC
:10B1600001DA01244042002901DA01254942FFF7B2
:10B17000DDFFAC4200D04042002C00D0494270BDFF
:10B1800010B5431A934209D28318881803E0401E71
:10B1900001785B1E1970521EF9D210BD03460B4395
:10B1A0009B0703D009E008C9121F08C0042AFAD27D
:10B1B00003E00B780370401C491C521EF9D210BDED
:10B1C000D2B201E00270401C491EFBD2704700223F
:10B1D000F6E710B513460A4604461946FFF7F0FF96
:10B1E000204610BD421C0178401C0029FBD1801A6A
:10B1F000704730B504460020034600E05B1C9342D4
:10B2000003D2E05CCD5C401BF8D030BD064C01257C
:10B21000064E05E0E36807CC2B430C3C98471034FE
:10B22000B442F7D3FFF750FF10FB010030FB0100E1
:10B2300030B58C180278401C13071B0F01D103781E
:10B24000401C120906D10278401C03E005780D70FD
:10B25000401C491C5B1EF9D101E00B70491C521EB9
:10B26000FBD1A142E6D3002030BD0000F0B500259F
:10B27000FF248BB0013401262F460195204603F0B0
:10B28000DDFA002808D047484068304204D04648DC
:10B290000021201835430160241D76007F1CA4B2D4
:10B2A000042FEBD3FF207D3003F0C8FA002807D02D
:10B2B0003E4800210160400705433D480069019078
:10B2C0003C4C280712D0012700262F420AD03A48CA
:10B2D000B200111808690969C004C00E8903A25898
:10B2E000890F90477F00761C042EEED3002D57DA8D
:10B2F00000200590401E4DE0A119403108788506D8
:10B30000AD0E42B2521C39D00121A940089A0091D9
:10B31000114233D080090390284601F0E7FC8000F9
:10B3200020580490002802D10398032826D10398BE
:10B330000099032802D10598084305901F4AA800E8
:10B3400080180068019A8003800F114202D0022801
:10B3500002D013E0032811D10399032907D1022851
:10B360001CD00221284603F059FA7F1CFFB2049832
:10B37000002803D0049A284603999047761C042E8F
:10B38000BAD3002F0CD00A4800690199884207D02F
:10B390000190059800273E460890ADE70321E1E7BC
:10B3A0000BB0F0BD00630040006000407C610040D5
:10B3B00000050050082800200065004000070050EC
:10B3C0008307FF22DB0E9A408907090E9940002867
:10B3D0000BDA0007000F0838830808489B0018188C
:10B3E000C36993430B43C3617047830804489B00C0
:10B3F0001B181868904308431860704700ED00E080
:10B4000000E400E010B5064900200860486088604C
:10B41000C860034940390860486004F0EDF810BD89
:10B420004011014010B504F07DF810BD10B506487C
:10B430004068002805D08047002801D000F006FAB7
:10B4400010BD02F01DFE10BDC421002010B502F099
:10B4500061FE002805D01F491D484860C8131E49D9
:10B4600088611E48018CC9B201290BD1828C120758
:10B4700008D1028D1206120F042A03D1828D120602
:10B48000120F0AD0012921D1818C09071ED1018D0B
:10B490000906090F0A2904D007E0114A0121916029
:10B4A000F5E7828D1206120F05D00D290ED1808D81
:10B4B0000006000F0AD10B480168012904D00A498F
:10B4C000016001680129FCD1C021416110BD00006B
:10B4D000DFFF07C000050040006C0040C00F00F017
:10B4E0000006004000EC06407593000010B504F023
:10B4F00029F910BD30B47446641E2578641CAB4233
:10B5000000D21D46635D5B00E31830BC184702E0C3
:10B5100008C8121F08C1002AFAD1704770470020DE
:10B5200001E001C1121F002AFBD17047F7B584B0BA
:10B530000025168807461580406B1446002813D056
:10B5400003780598032E51D302210170218811221E
:10B55000491C89B2218042542188491C89B221802A
:10B5600043542088401C2080386B00281DD005469D
:10B570002088059902461232B24237D811220A5465
:10B5800020881022401C80B220800A542088401C51
:10B5900020800F202A5C2388401ECA54228840B293
:10B5A000521C22800028F5DA00253846203002900F
:10B5B000807B002806D033462246059902F0F6FD2E
:10B5C000050014D10298407B002806D0324621465F
:10B5D000059800F067FE050009D1B878002823D04F
:10B5E000059886462088001DB04202D90C2007B07D
:10B5F000F0BD684679DF0028F9D121880320724622
:10B60000505420881921401C80B220801154208879
:10B610007146401C80B2208041186846008804F0C2
:10B6200025F9218840182080F878002817D0218833
:10B6300003230A46FB56C91C0598B142D6D80221FD
:10B64000815421880122491C89B2218042542188D9
:10B65000491C89B2218043542088401C208078688E
:10B66000002817D021880023C3560A46C91C059814
:10B67000B142BBD80221815421880A22491C89B2D7
:10B68000218042542188491C89B22180435420885A
:10B69000401C2080388900280AD000943846019642
:10B6A000062202210830059B04F05FF905009ED1B7
:10B6B000388A00280AD000943846019607220321D0
:10B6C0001030059B04F051F9050090D1388B00280B
:10B6D0000AD0009438460196152214211830059B93
:10B6E00004F043F9050082D1386A002806D03346B9
:10B6F0002246059901F0A8FC0500D8D1786A0028F7
:10B7000006D033462246059902F0DEFE0500CED172
:10B710000298007B002807D0334622463846059918
:10B7200003F08BFC0500C2D13878002807D03346DF
:10B7300022463846059902F0FBFE0500B7D128469F
:10B7400055E710B501220221002001F0FBF8002886
:10B7500001D0072812D107220221012001F0F2F8BE
:10B76000002801D0072809D100210A22084601F04B
:10B77000E9F8002801D0072800D1002010BD000002
:10B78000044842680121C9050B46934383600A407F
:10B79000C26070470005005070B50024064D06E0F9
:10B7A0006968E000085C012102F048FF641C287809
:10B7B0008442F5D3002070BD90210020F8B51546D5
:10B7C0000C460646052A01D20720F8BD03F00CF806
:10B7D000002803D102F0DEFF0028F6D11049002036
:10B7E0004E600C70C8608D6008610E4D0DE0E00089
:10B7F00069688019009181786A46517000780A4A18
:10B80000694602F06BFF0028DFD12046641EE4B2D7
:10B810000028ECD1054A0021024800F04FF8F8BD9D
:10B820009021002008FB010025DE010011D201005B
:10B83000BFF34F8F04490348C860BFF34F8F00BF69
:10B84000FDE700000400FA0500ED00E00EB5002160
:10B85000029000916A4601910148FFF7E9FF0EBD91
:10B8600001400000014B1B6818470000E42700203E
:10B8700038B50C46A2680C235A43064B09789D58EC
:10B88000054A126A00920246204608302369A847FA
:10B8900038BD0000C82A00206C21002010B50649E0
:10B8A00014230A785A435118091DFFF7E1FF0420B9
:10B8B00003F096FC10BD00006C280020094B9B682B
:10B8C000002B07D0002A07D0002805D00068037C91
:10B8D000002B03D008207047072070474174426155
:10B8E00000207047A4210020FFB59007002581B0FB
:10B8F00014460E46002832D11B4F002C31D003F0E5
:10B9000091FA049878610320387033461821224652
:10B9100000204B43BC601834C10089180D704D7075
:10B920008E704C601C19401C0328F5DBFD607D7097
:10B9300001240E48BD702405046003211420FFF784
:10B940003FFD0B4804600B4C0198A06003211120BF
:10B95000FFF736FD60683861002005B0F0BD0720B4
:10B96000FBE7BD60FBE70000A421002080E200E0CF
:10B9700000E100E000150140FEB50D461B491746E9
:10B980008968044600292AD0002C28D0052D01D230
:10B990000720FEBD6069002821D0607C012820D0EE
:10B9A000002603F0A5FFC0001049019089684018E7
:10B9B000694603F0C7FF002815D0012101700C492A
:10B9C000446049680830E2C0084901988968411814
:10B9D00068460078487003F0E7FD0020FEBD0820AF
:10B9E000FEBD2E46DDE70420FEBD0000A4210020A0
:10B9F00000150140F8B5134D0446A96800291CD074
:10BA0000002C1AD06069002817D00026267403F095
:10BA10006FFFC700A8686946381803F093FF002835
:10BA20000DD0022101704460A8683918684600787A
:10BA3000487003F0B9FD3046F8BD0820F8BD042079
:10BA4000F8BD0000A421002070B51925134C6D0429
:10BA5000002229462068FFF78FFF002801D0FFF75A
:10BA6000F5FE002283216068FFF786FF002801D0E1
:10BA7000FFF7ECFE00222946A068FFF77DFF0028B3
:10BA800001D0FFF7E3FE05210022C903E068FFF7BC
:10BA900073FF002801D0FFF7D9FE70BD58FA0100EE
:10BAA000F0B50546007D002493B00E4600280DD069
:10BAB000012001466846103103940173717B417384
:10BAC000817BF92001406846891C81731C2104A8F0
:10BAD000FFF77DFB6946087C02210843694608742C
:10BAE0002A7DEF21002A02D01022104300E00840F6
:10BAF0006A461074059407940894287D002800D0A5
:10BB000003A8099001270A9410469771304A828051
:10BB10000094B27B0270F27B42708078F922104070
:10BB2000F722801C1040EF21084041084900684678
:10BB30008170317B017214210BA8FFF748FB01A82B
:10BB40000B9068460C908786C486078702A80F90E2
:10BB5000A888AB1D0BAA04A9A2DF002835D1B068C4
:10BB6000002830D0684687711A4981800094317C62
:10BB7000017000200146684641708078F921084034
:10BB8000F721801C0840EF21084041084900684621
:10BB9000817011A8B16800F034FD064614210BA88D
:10BBA000FFF715FB01A80B9068460C908686C486AB
:10BBB000068711A80F902A46E8880E320BA9A3DF4A
:10BBC000002802D100E0EC81002013B0F0BD00009D
:10BBD000192A00000829000010B50B490B4803F092
:10BBE0001FFAC1B20848683800F05CFA002809D092
:10BBF000082807D00649884204D00649884201D067
:10BC0000FFF724FE10BD0000DC2400208C20002063
:10BC10000430000001340000F0B50C4693B01F2141
:10BC20006A461180072600279180002809D0C17834
:10BC300049070DD502A9FFF779FC002809D102AD0B
:10BC400001E000251780002C0ED0E078002802D0FB
:10BC5000304613B0F0BD01AA0AA92046FFF766FCE2
:10BC60000028F6D10AAA02E06846002287806846CA
:10BC70008088C3B268460088C1B2284672DFE8E710
:10BC800070B50D4604991646040042D0002E40D0EF
:10BC9000424800224271C36001612422314640487B
:10BCA000FFF76EFA00F0D4F83D49343108461038F9
:10BCB00001602031816038215C38FFF788FA38480C
:10BCC000217838380170A1788170E178C17061788D
:10BCD00041706269216942610161E268A168C260E4
:10BCE00081600146E369A269CB618A61616A0029CA
:10BCF00019D00146AC310246B83241628A60636AAB
:10BD00001B880B80616A436A898899800021436A95
:10BD100006E00E2070BD666AB668765C5654491C13
:10BD20009E888E42F7D8A16A00291CD01C4AAC32EA
:10BD300011460C398A608162A36A9B888B80A16A54
:10BD4000836A098819800021836A04E0A66AB668BC
:10BD5000765C5654491C9E888E42F7D82C210A5D89
:10BD60000F4918390A73216A002909D00B49143187
:10BD70000162226A52884A80216A026A0988118017
:10BD80006168002904D00549891D416061684160EE
:10BD9000034829463838FFF73FFF70BDD020002008
:10BDA000B025002010B502881C4C102A17D00021A5
:10BDB000112A1AD01B2A11D1007A00280ED16079DD
:10BDC00001281ED0022822D0032822D0042805D121
:10BDD0002171E2680846002A00D0904710BD817D9D
:10BDE0000129FBD18088208110BD61708088218964
:10BDF0008842F9D1012005E021690029F4D0884763
:10BE000010BD022000F058F80028F5D110BD032025
:10BE1000F8E7032020710420F4E70000D020002080
:10BE200010B5022801D003280ED1084C2078002834
:10BE30000AD000202070607900F03EF8002803D07E
:10BE40002169002900D0884710BD0000D0200020C3
:10BE500010B507210148FFF7BAF910BDE82000200E
:10BE600010B51348007801281FD1124C60780028C3
:10BE70001BD16079002802D074DF002816D1012080
:10BE80000B49607006203839C870094800213838DD
:10BE9000FFF7C2FE002809D1607900F00DF80028F4
:10BEA00003D02169002900D08847002010BD000080
:10BEB000B0250020D0200020F0B5784C87B060710C
:10BEC000002606A8069602F051FD0127082802D098
:10BED000002808D104E006A801F090FE002804D153
:10BEE0000698002801D02770D4E0FFF7B1FF6C4D11
:10BEF0006878002802D06079012807D0A878002847
:10BF00000CD06079012801D0022824D1E1680029F1
:10BF100003D0E7700820884700E0E67060790128C8
:10BF200008D16878002809D05C48193002F0BEFCBE
:10BF3000002803D06079022802D00CE00220607152
:10BF4000A878002805D05548193002F0AFFC002829
:10BF500001D103206071287B002804D16079032877
:10BF600001D104206071287E002804D16079042862
:10BF700001D166712671E16800290AD06079032831
:10BF800001D0042805D12878002802D06078002844
:10BF900017D0A67018216846FFF719F96846067091
:10BFA000019606720396607901280ED0022815D0FA
:10BFB0003B4E243637465C3F03281BD004285DD116
:10BFC0003AE0A77007208847E4E73448183001902A
:10BFD0006846077046820682277152E02F48183063
:10BFE00001906846077029894182A9880182022050
:10BFF000207146E0A88A69464882288A0882284833
:10C00000243003F021FD002805D02878002802D034
:10C010006078002801D003202FE0022069460872D2
:10C0200004200396F8701E4800213838FFF7F4FD0D
:10C03000002830D1052020E0A88B69460882288C92
:10C0400048821748243003F0FFFC002805D02878E8
:10C05000002802D06078002801D004200DE00220E2
:10C060006946087204200396F8700D48002138389C
:10C07000FFF7D2FD00280ED106202071607900283C
:10C0800003D0684673DF002805D1E168002901D09C
:10C0900020798847002007B0F0BD0000D0200020A4
:10C0A000B025002073B586B004002FD06A46217CED
:10C0B000127F0020914227D0002501266846009576
:10C0C0000680458007A80190E188608A6A46A4DF5F
:10C0D000002819D16846007F2074608A0D49884283
:10C0E00016D0207D002813D0029503950495059560
:10C0F000E1886846018186724188818104900198B7
:10C100000590608A02A9A6DF08B070BD0E20FBE78B
:10C110000820F9E7FFFF000038B50D4604001AD0EB
:10C12000002D18D0286820600020C0436082287944
:10C130002075FF2020740121684681700749018025
:10C14000221D69460120A0DF002803D12946204690
:10C15000FFF7A6FC38BD0E2038BD00000F18000008
:10C1600038B5002824D0002922D00A88102A1AD0F5
:10C17000112A1AD0502A1BD1027D002A18D0CA8851
:10C180004389891D9A4213D14A89022A10D1026833
:10C19000002A0DD04B7B0C7B19022143C907C90F24
:10C1A00007D0002106E0898801E00021C9434182CF
:10C1B00038BD01216B4619706946904738BD0000B3
:10C1C00070B5054601461C220E48FEF7D9FF0E4CFD
:10C1D000002626702968002906D00822201DFEF7B7
:10C1E000CFFF201D7ADF02E00748001D7BDF00281B
:10C1F00007D1401E60806670044A00210448FFF7A2
:10C200005DFB70BD9C260020F02000208DF8010011
:10C21000A8FA0100F8B5214C028800271E4DE689D6
:10C22000102A15D01E49112A21D0122A2DD0502AA9
:10C230001CD1C288801DB24218D14289022A15D170
:10C24000427B037B10021843C007C00F0CD112E0E1
:10C250008188698001461048082218310C30FEF7A9
:10C260008FFF6F70002E01D100F036FFF8BD002067
:10C27000C04368806F700868FFF7BCFB0028F5D0EA
:10C28000A1690029F2D08847F8BD08228118024828
:10C290000C30FEF775FFE7E7F02000209C26002019
:10C2A000A8FA01007CB5054608880C460930904282
:10C2B00001D90C207CBD684671DF0028FAD12188A5
:10C2C0000820685420881B21401C80B220802954FB
:10C2D000208800A9401C80B220804019062201312C
:10C2E000FEF74EFF20886946801D80B220800978C5
:10C2F000002900D0012129542088401C20800020E2
:10C300007CBD00007FB504460121684681714A4921
:10C3100081804A4A01A90120A0DF00287ED122881D
:10C3200025463C35002A09D044482B46801C009005
:10C330004348616800F0E2FC00287BD12289002A92
:10C340000AD03E482B460A3000903D48E168401F25
:10C3500000F0D4FC00286DD1228A002A0AD0374888
:10C360002B461230009036486169001F00F0C6FC71
:10C3700000285FD1228B002A0AD030482B461A3081
:10C3800000902F48E169801E00F0B8FC002851D1D0
:10C39000228C002A0AD029482B46223000902848B7
:10C3A000616AC01E00F0AAFC002843D1228D002A39
:10C3B0000AD022482B462A3000902148E16A401ECC
:10C3C00000F09CFC002835D1216B00290ED002A87A
:10C3D00003F072F819482B463230009018480822B2
:10C3E00002A9801F00F08AFC002823D1606B00287E
:10C3F0000BD012492B463A3100910279016810485E
:10C40000401C00F07BFC002814D1A16B002910D047
:10C4100002A802F08FFA0948423000E00AE00090DA
:10C4200007482B46072202A9273000F067FC0028A6
:10C4300000D1002004B070BD0A18000004210020C3
:10C44000292A000070B5044601F00CF82146124874
:10C4500000F08CF8104821461838FFF781FE20467E
:10C46000FFF7D8FE204600F0A5F920880B4D1028D4
:10C4700002D011280CD108E0072000F087FA00282C
:10C4800001D0FFF7E3F9A08801E00020C043A880B5
:10C490002046FFF787FC70BD8C2400208020002000
:10C4A00030B5054618488BB004681849641C046010
:10C4B000288C884226D0142105A8FEF788FE142077
:10C4C00069460882200E0875200C4875200A887578
:10C4D000CC75002000900190029003902A890A8078
:10C4E00001228A70888004A8029005A80390288CF5
:10C4F000A6DF002804D16946098A142900D00C203F
:10C500000BB030BD0820FBE750210020FFFF0000EA
:10C5100038B5044608682060087960710020C0437F
:10C520000D4620840020222108554C21085301216A
:10C53000684681700C490180A21D69460120A0DF78
:10C5400000280FD12946204601F0FEFC002809D121
:10C55000A868002805D02946204600F099F8002850
:10C5600000D1002038BD00000D18000038B50A8841
:10C57000102A17D0112A17D0502A18D1CA888389B7
:10C58000891D9A4213D14A89022A10D10268002AD1
:10C590000DD04B7B0C7B19022143C907C90F07D073
:10C5A000002106E0898801E00021C943018438BDEB
:10C5B00001216B4619706946904738BD70B5054634
:10C5C00004464035A8890E46142807D12622A11812
:10C5D000881EFEF7D5FDA889401EA88180B24100C3
:10C5E0000919401CA8818E8470BD2030817070476D
:10C5F00070B504460D460846FEF7F4FD20806560E0
:10C6000070BD0A78027049784170022070470000BE
:10C6100000B51A4887B000690590002348221849E0
:10C6200005A802F02DFE002801D0FFF70FF96A4699
:10C630000121002002F00CFE002801D0FFF706F9CE
:10C64000104802F03BFC002801D0FFF7FFF86846D5
:10C6500002F0F4FD002801D0FFF7F8F80A4802F0D4
:10C66000E3FD002801D0FFF7F1F8084802F022FEB0
:10C67000002801D0FFF7EAF807B000BD58FA010022
:10C680002C240020E81F002045C40100A9F401006B
:10C69000F0B58FB00D4606461C216846FEF797FDA3
:10C6A0006846017802200143684601700024019425
:10C6B000039404940594012708A8069487701549EB
:10C6C000684601840794E97B0177297C4177807F64
:10C6D000F9210840F721801C0840EF21084041085B
:10C6E000490068468177142109A8FEF770FD08A863
:10C6F000099007A80A9068468785C4850786A868B8
:10C700000D903346F088103309AA6946A2DF0FB0B6
:10C71000F0BD0000382A00001CB5044681786A4646
:10C720000C4802F037F9002812D160781C214843E8
:10C7300009491C2340181A46694602F0F1F90648D7
:10C7400006494C30807A80000A5821466846904756
:10C750001CBD00006421002098270020C0FA0100C1
:10C760007CB5134E00250C463060002918D0694670
:10C77000002000F0B5F8002819D101A9012000F02F
:10C78000AFF8002813D1684601790020002901D0B4
:10C79000022004E069460978002900D00B202070AF
:10C7A0007068002802D1FEF7CCFF054628467CBD04
:10C7B000C820002010B51C4C0188606810290DD0DD
:10C7C00011290AD1401E606007D1FEF7BAFF002888
:10C7D00003D02168002900D0884710BD00281ED151
:10C7E00000210122084600F0ADF8002801D00728FA
:10C7F00011D107220221012000F0A4F8002801D065
:10C80000072808D104220221002000F09BF800280C
:10C8100005D0072803D02168002900D08847606828
:10C82000401C606010BD0000C820002010B503202F
:10C8300000F006FA002801D0062800D1002010BD23
:10C84000F8B507460024234802E0641C042C1AD2E1
:10C85000A2008258BA42F8D1042C14D21D481E4EB0
:10C860000C38002929D001290ED002290BD16000F3
:10C87000201880194578002D05D018480169002935
:10C8800001D028468847F8BD61006118755C8E1993
:10C89000717800290CD011490A22496880685143F7
:10C8A0000E4A521CFFF768F8002801D10B48477068
:10C8B0000A48B17814300155DDE78068FFF79AF82F
:10C8C00006486100611814308919005D8D78A8420E
:10C8D000D1D0F8BD78FA01004C250020B02000200E
:10C8E00004280CD2074A1269074B80001B5C012008
:10C8F0009840904300D0012008700020704700202D
:10C90000FAE700000005005078FA010010B504288D
:10C9100006D007280ED00A2801D102F04DFC10BD28
:10C9200007481321808876DF06E00028F7D0FEF75D
:10C930008DFF10BDFFF794FA0828F6D110BD000056
:10C940008020002070B50023042811D2440004196F
:10C950000D4D012A02D101290DD000224600801977
:10C96000094E801900290CD0012906D0022906D0D1
:10C970000723184670BD0D30C2B22A55F9E7427040
:10C98000F7E78270F5E700004C25002010B5054A56
:10C990000146127A0020D20702D0084600F054F86F
:10C9A00010BD0000B020002070B50E46204905469D
:10C9B0004E608D6000200A61A9071ED50024012267
:10C9C00011462046FFF7BEFF641C042C02D200284B
:10C9D000F5D012E0002810D1720804211548FEF7A6
:10C9E000EDFE002809D1FEF7D7FE002805D1114839
:10C9F000114A00211438FEF761FFE90706D00F2223
:10CA00000E4952058A600023CB608A6100280DD14F
:10CA100008480B4A00211C38FEF750FF002805D1BA
:10CA20000448084A01211838FEF748FF70BD00008D
:10CA3000B020002088FA01007DCC010000050050E4
:10CA400001E2010081B70100FEB57A4D0722EB68D3
:10CA500092059A4302936B6800939C0006461B194B
:10CA600000200121019349050746734C3300FEF76E
:10CA700041FD180D1515374755677C887F8891DE75
:10CA80009E9E9E9E9EC8CED1D8DEDE140F21029AB5
:10CA900049059143A160E7602F70FEBDA260E76089
:10CAA00060680F2252055040800209D5A160E760FE
:10CAB000022E02D1E120C0000AE07D20400107E003
:10CAC000E160A760022E01D1C82001E0FF20913073
:10CAD0002E706421FEF72AFB0099414300223FE0BB
:10CAE000A260E76060680F2252055040800204D5C2
:10CAF000A160E76019204001EAE7E160A760E3E791
:10CB0000A260E76060680F2252055040800202D5A3
:10CB1000A160E760D1E7E160A760D7E7A260E760C6
:10CB200060680F2252055040800202D5A160E76084
:10CB300001E0E160A7602E700098410000220FE044
:10CB4000A260E76060680F2252055040800202D563
:10CB5000A160E76001E0E160A7602E70009900220B
:10CB600036480068FEF708FFFEBDA260E7601BE0E4
:10CB700061680120800502468A43A2600140E160AD
:10CB800010E06068012189050A468243A2600840DE
:10CB9000E060E3E76068012189050A468243A260FC
:10CBA0000840E0600199C9E7E160A7602DE02348F3
:10CBB0004068FEF71FFF11218A1B01D0002807D013
:10CBC0000F22E96852051140A160E760EF60FEBDE9
:10CBD0000121C905E960012A0CD91046C821484342
:10CBE0006421FEF7A3FA69680022414313484068B4
:10CBF000FEF7C2FE0F22E96852051140E160A7600E
:10CC0000FEBD0F214905A160E7602E70FEBD072221
:10CC10009205AAE70D214905A160E7600121890578
:10CC2000C2E70321C905A160E7608910BCE70F21B5
:10CC30004905B9E7B0200020000500506CFA01005A
:10CC4000F0B500210B4C0C4D03273F048A00A2587D
:10CC500092005619326801238B40034000D0032311
:10CC6000BA431B0413433360491C0429EED300204C
:10CC7000F0BD000078FA01000007005010B5007800
:10CC80000221FFF7DDFD10BD0022D24383000449DD
:10CC90000428CA5002D308182030027770470000D9
:10CCA00008280020F0B50025ED43002A02D000231B
:10CCB000042601E0042308260B4C04E09F00E759FA
:10CCC0007F1C04D05B1CB342F8D32846F0BD261865
:10CCD0005DB2203635709E00A151002AF5D1E118D1
:10CCE00020310877F1E700000828002002490918E0
:10CCF000202008567047000008280020FFB58FB09C
:10CD00001E4615460F0002D10020FEF79FFD002DA4
:10CD100002D10020FEF79AFD1C216846FEF757FA63
:10CD2000684601780220014368460170002401949E
:10CD3000039404940594012108A806948170684620
:10CD40000F99018407943178017771784177807F5A
:10CD5000F9210840F721801C0840EF2108404108D4
:10CD6000490068468177142109A8FEF730FA08A81F
:10CD7000099007A80A9068468585C48505860448F9
:10CD80000D9709AA69460088189BA2DF13B0F0BD71
:10CD900004210020F8B53E481422017851430C18B4
:10CDA000E0680C2148433B492769401805894189BF
:10CDB0000091241D466801F07FFE01463846FEF7CB
:10CDC000B5F9002932D000200099A2884D4361882E
:10CDD000AE198918CD1900222F4900280A6109D0FF
:10CDE00001F06AFE6188884222D0B54202D1A08853
:10CDF00000281DD0A06803281AD001F05DFEA1888C
:10CE0000CA1901461046FEF791F9234C8808E060E4
:10CE100001F052FE01462846FEF788F9002911D09C
:10CE20000020B5422FD000280ED02CE00120CBE707
:10CE300001F042FE01463846FEF778F9164948618E
:10CE4000032021E00120ECE7ADB2B7B201F034FEDF
:10CE500001463846FEF76AF9064601F02DFE014606
:10CE60002846FEF763F9864201D1781B09E001F0FC
:10CE700023FE064601F020FE01462846FEF756F93D
:10CE8000701A80082061022002F0AAF9F8BD0000A3
:10CE90006C280020C82A00206C21002010B507480B
:10CEA00014220178514308180079042802D000F0B8
:10CEB00059F810BD012002F093F910BD6C28002034
:10CEC00010B50B481422017851430818094AC1884B
:10CED00011620079012806D0032801D0042801D16D
:10CEE000FFF758FF10BD012002F07AF910BD0000D5
:10CEF0006C2800206C21002014225043054A002198
:10CF000080180171C18002220161C260416101810A
:10CF1000704700006C280020F8B5104C069E65781C
:10CF20001E2D19D027787D191E2D00D31E3D1427E4
:10CF30007D432D1928716A6103C92961E860EB807E
:10CF40002E816078401C607005480078002801D16F
:10CF5000FFF7B6FF0020F8BD0420F8BD6C280020C4
:10CF60006C21002010B50D4C142120784843011984
:10CF70000020091DFEF77CFC2078FFF7BDFF6078DC
:10CF8000401E60702078401CC0B220701E2801D165
:10CF900000202070002002F023F910BD6C28002032
:10CFA000F8B52348C16800293ED00E6821494C6875
:10CFB0000769C078E11B0D022D0AED1C002814D171
:10CFC00001201D4A000450601B4A403A50601B4932
:10CFD000400008601A4908601A49012008602F20A3
:10CFE000FEF778F812490120C870B54200D23546E4
:10CFF000E81900020F4B000A403318600D4A5168CF
:10D00000001B091B0902090A0002000AC91C81420F
:10D0100009D9506818602F20FEF75CF801200749F5
:10D02000400480390860F8BD01F0FCFEF8BD000046
:10D03000A4210020001501404013014080E200E0DF
:10D0400000E100E000100140F8B5064610881446E3
:10D050008446801D0D46984201D90C20F8BD3288C7
:10D060000720062AFAD31927FF01184BBA4201D923
:10D070009A42F3D171880629F0D3B94201D9994275
:10D08000ECD19A4203D0994201D08A42E6D80521D8
:10D090006046295420881221401C80B220802954E7
:10D0A0002088401C80B220804119308802F0DEFBCD
:10D0B0002188401880B220804119708802F0D6FB88
:10D0C0002188401820800020F8BD0000FFFF0000EC
:10D0D00010B5FEF7BBFB10BDF8B5164801F00CF813
:10D0E000144D00260C3D144C002807D0616900291E
:10D0F0001CD001206A461070684616E02878002887
:10D1000005D06169002911D0684606700DE0687885
:10D1100000280DD0A168094800220068FEF72CFC09
:10D12000002803D0A169002900D088472E70F8BDDF
:10D130006168F0E7FC2000209C260020A8FA01008E
:10D1400070B5094B04469E7A082000250E4207D090
:10D150000648844202D01889A04202D100201560FE
:10D1600070BD052070BD0000D8270020FFFF000023
:10D170000C214843064910B5012240188272911EC5
:10D180000181FF21C1720721FEF721F810BD0000C7
:10D19000D827002010B5134C207900071FD46069F0
:10D1A000401C6061E068002801D0042004E000F029
:10D1B000D5FF002803D0022002F06CF910BD2069D1
:10D1C000002809D06068C10701D00320F4E70121DD
:10D1D000084360600020EFE7FFF760FE10BD02F03B
:10D1E0004DF910BD6C21002010B5084841680A07B0
:10D1F00008D48A0702D5012211434160022002F0BF
:10D2000049F910BD02F03AF910BD00006C21002070
:10D21000F8B500260124154D23E06968F000471891
:10D22000387821462A698140114218D08A432A6100
:10D2300001F0A6FA3A782146EB689140194003467E
:10D24000934099420BD17978012901D0012100E066
:10D2500000217B684140002B01D010469847761C86
:10D26000F6B228788642D8D3F8BD0000902100207D
:10D27000FEB50E46044681786A46234801F08AFBD3
:10D28000002826D160780C21204F4843C019807AAD
:10D2900040061FD4022E1DD0012E1DD01C4DA0789B
:10D2A0001C2148431B49002341181C226846A847FB
:10D2B000002813D0022E0CD020780C2148431349AB
:10D2C0000C314018807A144980000A58214668467B
:10D2D0009047FEBD114DE2E7114DE0E7022EF8D078
:10D2E00060780C214843C019817ABF2211408172B5
:10D2F00060781C2148430549403941181C231A46CF
:10D300006846A847D8E7000064210020D8270020FD
:10D3100001F40100D4260020B0FA010069ED0100FB
:10D3200089EC010070B50546114A124800241C23FF
:10D3300063431B189B7EFF2B04D0641C072CF6D381
:10D34000104670BD0A78022A09D01C2262431018C8
:10D35000FD22827607221030FDF712FF04E01C2127
:10D3600061430818FE2181762C700022E8E7000056
:10D3700043800000D4260020F7B505250F4F064650
:10D380000024002E0AD01C206043C0190722314619
:10D390001030FDF72EFF002807D00AE01C20604364
:10D3A000C019018B0298814203D1019800250460C5
:10D3B00002E0641C072CE4D32846FEBDD4260020DE
:10D3C0007CB5054681B26A46074801F0E3FA0400DD
:10D3D00008D17421684601F009FB040002D12846F7
:10D3E00001F070FA20467CBD6421002010B51000C9
:10D3F00001D0FEF72BFA002010BD00001FB56946D2
:10D40000087301F05FFB002801D0FEF71FFA03A8A4
:10D4100000F01AFA002801D0FEF718FA01A8052139
:10D420000130FDF7D4FE694649790120014381228C
:10D43000114030314A06520E69464A7107228A71FC
:10D440001022CA710549009169460871044800F02C
:10D4500021FB002801D0FEF7F9F91FBDEDD3010033
:10D4600082200020F0B591B00546FF2400200794EB
:10D470000290E9480078002849D0E84F3868002831
:10D4800045D001A800F0D2F9002801D0FEF7DEF95E
:10D49000281D05902C2069460883FF2000268871EE
:10D4A0000E710396DD4C28880C3C10280ED0A888FD
:10D4B00003AA0221FFF744FE002807D103980C219C
:10D4C00041430919CA7A69468A7148712A8813202A
:10D4D000192A7DD00FDC102A1BD0112A55D0132A0F
:10D4E00077D0142A13D103980C2148430019C07A2D
:10D4F000FF286FD0A1E0CA491A2A6CD01E2A65D035
:10D50000522A04D1B87A8000095801A8884711B07E
:10D51000F0BDC44F03AA01213846FFF711FE0028D1
:10D52000F5D103990C20484302220019827211237D
:10D530006A4613745171A98801812946083107226E
:10D540000091FDF71DFEE87DC10707D04108B248F4
:10D550000830405CFF2808D0079006E03A4607A94B
:10D560000098FFF709FF002837D103990C22514397
:10D5700009190798C8728A7A08231A438A72694679
:10D58000887101A8FFF7C8F827E003980C214843E9
:10D590000119887AFD2210408872010706D5C0095A
:10D5A0000DD0002101A8FFF763FE08E068468079EE
:10D5B000FF2804D001F086F9FF206946887103989E
:10D5C0000C2250431021001981721220694603E099
:10D5D0008BE043E014E0E4E00874324604A901A8BB
:10D5E000FEF740F96846007C122890D103980C2180
:10D5F00041430919897A012989D0FFF7B9FD86E7E6
:10D600002A8A07A90020FFF7B7FE00280ED1039948
:10D610000C22514309190798C8728A7A08231A43C1
:10D620008A726946887101A8FFF776F803980C2181
:10D6300048430019C07AFF2806D003981C214843AC
:10D6400076494C394018029003981C21484376498A
:10D650004218A8880023029986DF58E769460874B3
:10D6600003980C2148430119887A042210438872D8
:10D67000CA7AFF2A0BD040221043887216206946CE
:10D6800008740023A8881A4685217FDF21E007A8B7
:10D69000FFF748FE00281FD0064600200D90039992
:10D6A0000C224A431219D27A1C235A435E4B0F9024
:10D6B000D2180E921C2251431A46C4328918109077
:10D6C00009910A900B900C903A1DA88809AB002193
:10D6D0007FDF002893D180E7694607988871039916
:10D6E0000C2251430919C872D7E7787A0C214008F7
:10D6F0004000787203986F460246484301198446F9
:10D700008B7AFB2003408B7214203874287A00280F
:10D7100006D05806DFD4C87AFFF752FE2E7A5CE7AF
:10D72000687A4007D7D5B879FF28D4D008273B437B
:10D730008B726B7B9B0708D51C2503466B433A4DC8
:10D740005B199D7E6D086D009D76CB7AFF2BC2D054
:10D750006346E35C022B10D01C225043324D07225B
:10D7600040191030FDF70CFD684680791C214843B4
:10D770004019817EFD2211400DE01C214A432749BA
:10D780004C3951184A8A1C214843274940180283C2
:10D79000817E490849008176012101A8FFF768FDD3
:10D7A0001BE7287A0209012A23D10007000F01286C
:10D7B0001FD103980C2242431219927A120718D5EE
:10D7C000242148431549303940181A210830FDF703
:10D7D000FEFC16206946087403980C214843011981
:10D7E000887A602210438872787A0221084378721E
:10D7F0000FE003980C2250430019827A80231A43C9
:10D80000827215206A461074B87A8000095801A8FF
:10D8100088470026E1E6000054210020E42700208C
:10D82000D0FA0100FFFF0000D4260020002806D017
:10D83000FF21017041708170C17000207047014864
:10D84000704700000E800000F0B585B0040036D0AF
:10D85000294800250560457285722846FFF788FC37
:10D86000254824213038FDF7B2FC0026FF2730463A
:10D8700001F028F821488755761C072EF7D374212C
:10D88000684681800721C1801D481C4900900831ED
:10D89000684601F09BF900280FD1184E0120083E80
:10D8A0003070207800280CD069468888C9884843A1
:10D8B00081B23046103001F099F805B0F0BD114842
:10D8C000FBE7114F00240D48A1B202AA083001F075
:10D8D00061F8002809D11C206043C01900231C22D4
:10D8E00002A901F01DF9002801D03570E5E7641C9C
:10D8F000072CE8D3E1E70000E42700205C210020AA
:10D900000DD901000E800000D4260020FFB55C4830
:10D9100091B000681A9F1E46002873D0742F71D8EA
:10D920006846FFF783FF002801D0FDF78FFF002432
:10D93000684604700471254605970696A9B20FAA99
:10D94000504801F027F8002806D108220FA91198A5
:10D95000FDF74FFC002817D06D1C072DEED368464D
:10D960008578FF2D4ED01298032810D046481C21F0
:10D97000301AFDF7DBFB012707281ED204A802900E
:10D98000139800280BD011E068468570E7E7742FE4
:10D9900003D04020694608716BE02020FAE7384642
:10D9A0003849A84010394968084260D0284601F03B
:10D9B00063FF20206946087149E031481C214C383A
:10D9C000301AFDF7B3FB00281DD02D482421303834
:10D9D000301AFDF7ABFB01002C482BD040216A46E2
:10D9E00011712B498E4244D0274AA9001C3A515844
:10D9F000B1423CD104A90291C07A854227D1684640
:10DA0000447024E033E004A80290202069460871A5
:10DA10004C701B490B940C310C9158390791694695
:10DA200089781C225143184A05908918089107A942
:10DA300006910CE0302269460A714C70CF70807AF2
:10DA4000800704D4114824212438FDF7C0FB129824
:10DA500069460228087910D00221084369460871F6
:10DA600004A8029001A96846139AFDF7FBFE15B0C1
:10DA7000F0BD694608790321EFE73843EFE700007E
:10DA8000E427002064210020D4260020D82700208D
:10DA9000ACFA010070B5064618480D46007800281B
:10DAA0000ED01749002E0ED0002D0CD0286800286B
:10DAB00009D0144C2168002907D011480A3870BDDC
:10DAC0000F48801F70BD084670BD20600522691D8B
:10DAD000201DFDF755FB2879A072207A022140080D
:10DAE00040000843FB2210402072E07901231843D4
:10DAF00008431040E0710020307070BD54210020B8
:10DB00000E800000E427002010B50E4900234A785B
:10DB10008C78A24212D0521CD2B24A70022A00D192
:10DB20004B704A78074B920018339A580260086984
:10DB300010180002000A0861012010BD03600020D7
:10DB400010BD0000A421002010B5002803D011282A
:10DB500002D0FDF7A3FE10BD024808224168114320
:10DB6000416010BD6C21002010B51C4C217820466E
:10DB70004068012906D0022929D0032912D10007C3
:10DB800017D513E0000711D415481422017851432A
:10DB90000818C188A28B891A0904090CC18002D017
:10DBA00001F030FC10BDFFF7DDF910BD00F080FC86
:10DBB00010BD6069401C606100F0D0FA002803D0FD
:10DBC000207801F00DFB10BDFFF768F910BD6078FB
:10DBD000044980000858804710BD00006C210020D7
:10DBE0006C280020F4FA010010B528DFFFF7ACFF25
:10DBF00010BD10B529DFFFF7A7FF10BD002804D026
:10DC00000349496D01600020704703207047000000
:10DC1000002B00200EB51120694608720B2211A1BD
:10DC200002A87CDF002801D0FDF710FE104878DF45
:10DC3000002801D0FDF70AFE0020FF2200904132AB
:10DC4000694601900A804122D2004A808880FF20E4
:10DC50009130C88068467ADF002801D0FDF7F6FDD4
:10DC60000EBD00004E6F726469635F48524D310013
:10DC700041030000002070470020704700207047DB
:10DC8000F8B506464078242104464C4324490C222A
:10DC900050436118224A00254B6824328018AE4652
:10DCA0002F469C46002B0CD0827A1346D20908D00E
:10DCB0005A0606D40D461A4A614689B217590835E4
:10DCC0008E46174C008924343B4672462946A9DF0C
:10DCD0000B2819D0002800D01248012F13D17078DA
:10DCE0000C214843001900890F4AA7DF00280AD0F9
:10DCF0000E49884212D0082810D0891C88420DD0C5
:10DD000011280BD00020F8BD70780C214843012366
:10DD10000019008972462946A9DFE0E70148F8BDED
:10DD2000B427002041800000FFFF00000230000007
:10DD300070B50C46014660782422084D50434019C6
:10DD4000382300F0EDFE002807D1617824225143EA
:10DD500049194A68521C00D14A6070BDB42700209E
:10DD6000F3B589B00D461A206946888368780C217E
:10DD700003274843224E3B468019008907AA69467B
:10DD8000AADF002838D1687824214843741A001982
:10DD900069468A8B0830FDF72CFA0028687807D08E
:10DDA000242148430119496800290DD0154E0CE083
:10DDB0000C2141438919897A89071DD424214843BC
:10DDC0000019FDF704FA17E00F4E27506846828BC2
:10DDD0006878242148430019426068784843001954
:10DDE00069460830FDF7CCF96878242148430119C9
:10DDF000382324220998B04700200BB0F0BD000062
:10DE0000D827002069ED010089EC010010B5FFF76B
:10DE100037FF10BD10B5FFF78BFF10BD10B5FFF732
:10DE20009FFF10BDF8B50746104E0125BD40306874
:10DE3000FDF7E0FD00280DD10D4C2069284207D1E7
:10DE4000384600F09DFC0028E06804D0284303E039
:10DE5000A8432061F8BDA843E06020690022284360
:10DE60002061A1683068FDF787FDF8BD08FB01005F
:10DE70009021002070B51B4C207900072ED41A4841
:10DE80001422017851430D182E6900F015FE014649
:10DE9000E8882A89761E80188019FDF747F92169DC
:10DEA0000025002909D06169814206D1E5606068DA
:10DEB00001210843606000200AE000F04FF90028CB
:10DEC00002D00220E56003E02069002803D003208F
:10DED00001F0E0FA70BDFEF7E1FF70BD01F0CEFA8F
:10DEE00070BD00006C2100206C28002010B5124984
:10DEF000124801F095F8114C81B2143CA068401C06
:10DF0000A0600D486038FEF7CBFA002809D0082839
:10DF100007D00B49884204D00A49884201D0FDF756
:10DF200095FC0321A068FDF701F9002901D001202B
:10DF300000E00020207010BDEC2400209420002080
:10DF40000430000001340000F0B5002406460D4600
:10DF5000601C010795B0090F08A810310C940174DA
:10DF6000297B4174817CF9273940891C81741C21EB
:10DF700005A8FDF72CF96846017D1020014368468D
:10DF800001750CA806940A900894099401220B9438
:10DF900008A882761749684601870D94697B08A80E
:10DFA0000175A97B4175817DF7203940891C0140AD
:10DFB000EF200140114308A8817514216846FDF740
:10DFC00006F90EA800900DA801900FAA0021304676
:10DFD00000F012F8014668460181142144818181D4
:10DFE0000FA804903346F08808336A4605A9A2DFDB
:10DFF00015B0F0BD372A0000F7B542790025002A98
:10E0000000D004252222135C0222002B00D01543ED
:10E01000CBB2FF2907D901221543029A090A53708E
:10E020009170032602E0029902264B7004464034A8
:10E03000A189002901D010210D43002716E0B11C51
:10E04000142909D9A189C91B4A007900091824306B
:10E050002431FDF795F80CE0029B7A0012189B1909
:10E06000928C1A70120A5A70CEB27F1CA189B942E2
:10E07000E5DCA089C01BA081029805703046FEBD7A
:10E08000F8B51C4C2078002833D02069002807D030
:10E090000026E068002805D00025002E04D011E0FD
:10E0A0000126F6E70125F8E7684652DF052804D087
:10E0B000002804D0FDF7CAFB04E0012602E0216934
:10E0C00000988847002D10D1608869460880A068B4
:10E0D00061DF052804D0002804D0FDF7B7FB04E079
:10E0E000012502E0E168A0688847002EDCD0002D01
:10E0F000D3D0F8BDC4210020418805480288914250
:10E1000004D34088814201D8012070470020704725
:10E11000F42000201048018CC9B2012917D1818C4C
:10E12000090714D1018D09060A0F03D1828D120649
:10E13000120F0ED0090F012903D1828D1206120F82
:10E1400007D0032903D1808D0006000F01D00020E5
:10E150007047012070470000C00F00F070B50E48F6
:10E160001422017851430C18256900F0A5FC0146E2
:10E17000E08822896D1E80184019FCF7D7FF0749F7
:10E180004A69824206D3824202D10869002801D03E
:10E19000002070BD012070BD6C2800206C21002083
:10E1A000800701D0002070470120704730B51588E6
:10E1B000EC1C9C4201D90C2030BD02244C55138824
:10E1C0001C255B1C9BB21380CD5413885B1C9BB237
:10E1D0001380012807D0022807D0032807D004287D
:10E1E00007D0072030BD002004E0012002E0CC541D
:10E1F00001E00320C8541088401C1080002030BD6E
:10E2000010B50448017AC90702D00078FEF71CFC5B
:10E2100010BD0000B0200020F8B52C49C8680A697C
:10E220000C780F7989688646944600913EE0009903
:10E23000E20055182A7836E0182353436968521CC7
:10E24000C918AB78D2B2934200D100220B78022BCE
:10E2500002D0032B27D123E04E680346014603E09A
:10E26000B14204D00B46C96900291CD0F8E7002947
:10E2700019D08B4208D1C069002805D1144F01265E
:10E28000BE600026B44601270E68C969D96100291D
:10E2900009D00B689B190B6005E00174C06900E0B0
:10E2A00000210028F9D169789142C5D12146641E28
:10E2B000E4B20029BBD1054962460A61C8600F710A
:10E2C000704501D00120F8BD0020F8BDA421002038
:10E2D00000100140F8B5044631480026C16800919D
:10E2E00007784EE02E48F90080680D1843E0002CB6
:10E2F00002D02046E4691FE02878182141436A686B
:10E30000401CC0B251182870AA78904200D12E70DB
:10E310000A784868012A30D1027C002A2DD18A6807
:10E320004260CA6882600A69C260496981611C49A9
:10E330000979002900D04660194943680A699C465A
:10E34000991A0902174B090A994202D28268891860
:10E3500007E06146511A09028268090A8A4202D915
:10E36000511A016000E00660466001218660017478
:10E37000C66101F021F9002CB9D12878697888426A
:10E38000BAD138467F1EFFB20028ABD10448C1681D
:10E390000098814201D00120F8BD0020F8BD0000A6
:10E3A000A4210020FFFF7F0098B001F065F9394AF1
:10E3B00039490320FEF7F8FA002801D0FDF746FAA4
:10E3C00001A90020FEF7CCF9002801D0FDF73EFAA4
:10E3D00068460079022855D0002168460170FEF792
:10E3E00017F968460078FFF709F8FFF713FC3821A2
:10E3F00001A8FCF7ECFE0221684601710125857138
:10E400000621C171032484822448069024210FA888
:10E41000FCF7DDFE10A80572FF202D3000251390BB
:10E42000B420009514901E4B0FAA294601A8FDF7B1
:10E4300027FC002801D0FDF709FA00F045FE00F0A6
:10E4400099FD1C216846FCF7C2FE1920400401908A
:10E450000290009568460473124881896846C1811C
:10E46000057411480590114806906846FDF7A8FE0E
:10E47000002801D0FDF7EAF9FDF7E6FA0320FDF7E1
:10E480001BFD02E00121A8E748DF0028FCD0FDF7D2
:10E49000DDF9F9E70DC90100CD0C0000A420002032
:10E4A0006BE801008C2400208DE80100D1D0010030
:10E4B00010B504480822416891434160007800F09B
:10E4C0008FFE10BD6C21002070B5144682880E4668
:10E4D00005462088111D4118921C994201D8FE2A38
:10E4E00001D90C2070BD521C32542088FF21401CE1
:10E4F00080B2208031542088401C80B22080811955
:10E50000288801F0B3F92188401880B22080AA88B9
:10E51000002A09D0A968002908D08019FCF730FE2C
:10E520002088A98840182080002070BD072070BD79
:10E53000F8B50F46017814460546012902D16878DE
:10E54000002806D02088821C9A422DD8012902D0AA
:10E5500006E00720F8BD69784118891C994223D844
:10E56000181A801E86B2684606802188B81C0818D2
:10E5700069467DDF0028EDD12878022805D169465B
:10E580000988B14201D809210AE00821012805D1F2
:10E590006878B04202D86A46108001E0684606807A
:10E5A00068460088FE2801D90C20F8BD2288401C4E
:10E5B000B8542088401C80B2208039542088694695
:10E5C000401C20800988401820800020F8BD0020D1
:10E5D0007047002070470020704700008207D30E6C
:10E5E000FF229A408907090E10B5994000280BDADE
:10E5F00003071B0F083B9C080C4BA400E318DC69C5
:10E6000094430C43DC6107E08408094BA400E41840
:10E61000236893430B432360C106C90E0120884041
:10E62000044908600449086010BD000000ED00E0E6
:10E6300000E400E080E200E000E100E0F3B581B03A
:10E640000F46019800F05EF9012400281E4E019843
:10E6500017D0FEF74BFB80192030007F800903287C
:10E6600002D0012806D007E01848006901998C40C3
:10E67000204201D1022100E00321019800F0CEF8F0
:10E68000FEBD00F04BF90028FAD00198FEF72EFBF2
:10E6900005468100C81D0E4AF93089180A6980B202
:10E6A00022430A610B49401800210160002FE7D086
:10E6B0000198FEF71BFB800030580028E0D0064888
:10E6C000AC404460FEBD000008280020000500505A
:10E6D000006500400060004000630040FEB5044655
:10E6E00023480E460019202141560027C81713461B
:10E6F000401C01D0082738E0F27819462046FEF782
:10E70000D1FA0546401C2FD0B078002807D0194810
:10E71000A1000918086802229043086007E0002160
:10E720007378204600910A46019100F065F8F07870
:10E73000002810D01048AA001018317802690F4B39
:10E740001A400261E206D20C8907890B0A4301696B
:10E750000A43026109E00648327840192030017FFF
:10E7600092011143017700E004273846FEBD000006
:10E77000082800200007005000650040FFE0FCFF73
:10E7800003490969C140C807C00F00D00120704784
:10E790000005005070B5124D2879002801D00820DE
:10E7A00070BD0F4900204039421E0B182033401C19
:10E7B000C0B21A702028F8D300242046FEF764FA6D
:10E7C000641CE4B2082CF8D303210620FFF706FFEF
:10E7D00001200449C007486001202871002070BD55
:10E7E000482800200063004002480079002800D03B
:10E7F000012070474828002030B552000A43990094
:10E80000039C0A432102049D0A4329040A43024946
:10E8100080004018026030BD0007005082000648AA
:10E820001018026803231B049A430260026809045B
:10E830000A43026070470000000700500349401877
:10E840000068012800D000207047000000600040F0
:10E850004058002800D0012070470322120280187F
:10E860004068084000D00120704710B5002809D04A
:10E87000032806D10220FEF789F8002801D0FCF712
:10E88000E5FF10BD00F098FC10BD000010B5007849
:10E89000002807D104483B21808876DF002801D07A
:10E8A000FCF7D4FF10BD0000802000200021425C56
:10E8B000002A01D001207047491C0629F7D3002007
:10E8C0007047000070B505461C200D496843441888
:10E8D000204611300621FCF77AFC20461021FCF777
:10E8E00076FCFF2121740020A176C04320832846B6
:10E8F00000F0C2FF024A0020A9001C3A505070BD2F
:10E90000D42600200449081820214156042901DB9F
:10E91000012070470020704708280020044908188B
:10E9200020214156042901D2012070470020704760
:10E930000828002070B50D00044602D10020FCF725
:10E9400085FF002C02D10020FCF780FF2878207082
:10E9500069886170090AA170A988E170090A2171AA
:10E96000E8886071000AA07170BD0000074909794C
:10E97000490701D408207047002804D00449497889
:10E980000160002070470E20704700006C210020BD
:10E990006C28002070B5134B1B795B0701D408204D
:10E9A00070BD002817D0002A15D00368022B10D2A2
:10E9B0000C240D4D5C432E59002E0AD04668601978
:10E9C0000489458940686143654371182818884265
:10E9D00003D8072070BD0E2070BD13600020516069
:10E9E00070BD00006C210020C82A0020FEB504463E
:10E9F00026480E460079400701D40820FEBD002CB1
:10EA000025D02068022836D20C21214D48432958B0
:10EA1000002930D0401941890289406851430918C2
:10EA20006068814227D9FFF7BBFB002811D06068DE
:10EA3000019021680C2251434F1979680091401AC6
:10EA400039890D46FCF772FB002914D103E00E2032
:10EA5000FEBD1020FEBD29463046FCF767FB0029AD
:10EA600009D1002E07D078890099454301984919AA
:10EA70008019884201D90720FEBD0020024600907F
:10EA8000334621460320FEF747FAFEBD6C210020E5
:10EA9000C82A002010B507484469601C06D000F061
:10EAA0000BF801462046FCF741FB10BD0120000792
:10EAB000406910BD0010001001200007006980B2FD
:10EAC0007047000070B50024124825460470447059
:10EAD0002846FEF711FA6D1C1E2DF9D30E4D6C80E1
:10EAE000FFF7D8FFC61EFFF7E7FF46430B4AAE60AD
:10EAF00000206C610C214143545089180C81401C4A
:10EB00004C810228F6D32C70AC610420EC61686063
:10EB1000002070BD6C2800206C210020C82A002035
:10EB2000FFB5284881B000791F4616460C464007BD
:10EB300002D4082005B0F0BD002C1DD0019800289B
:10EB40001AD02068022815D20C211F4D484329589D
:10EB500000290FD041194A89088949684243511850
:10EB60006268914206D9002E04D0B04202D3F11956
:10EB7000814203D90720DDE70E20DBE70198FFF78C
:10EB80000FFB00281BD03846FFF70AFB002816D0E1
:10EB90006068FFF705FB002811D060683246C11994
:10EBA0000198FCF7EDFA009620680C2148432D5897
:10EBB000002202212046019BA8470020BAE710202E
:10EBC000B8E700006C210020C82A0020F8B52C4DC1
:10EBD000044628790E46400701D40820F8BD002CD1
:10EBE00020D0002E1ED0206800281BD0FFF764FF25
:10EBF0000146A088814213D3102811D3E088002851
:10EC00000ED0FFF747FF471EFFF756FF4743E28846
:10EC1000A188A8684A431218974201D3890703D0F4
:10EC20000720F8BD0E20F8BD6988022926D0316082
:10EC30000C22144B51437060CA1850602068585021
:10EC4000A0881081E0885081FFF736FF0646FFF765
:10EC500033FFA188E288401E514340183146FCF73B
:10EC60007BFA0446FFF728FF0146A86861430818AD
:10EC7000A8606888401C68800020F8BD0420F8BDAA
:10EC80006C210020C82A0020F8B5044621481E4601
:10EC9000007915460F46400701D40820F8BD002F23
:10ECA0001CD0002C1AD02168022915D20C20414317
:10ECB00019484258002A0FD0081842890189406833
:10ECC0004A4310186268904206D9002D04D0A94228
:10ECD00002D3A819884203D90720F8BD0E20F8BD39
:10ECE0003846FFF75DFA002811D03046FFF758FA92
:10ECF00000280CD06068FFF753FA002807D02B4695
:10ED00003A46214601200096FEF706F9F8BD10208C
:10ED1000F8BD00006C210020C82A002010B5114960
:10ED200002460878002811D004280FD0022A16D0F5
:10ED3000032A0BD10A79120711D48A69521C8A61FD
:10ED4000032A08D0022802D000F04AFA10BD487801
:10ED500000F0A0FB10BD0D20FCF7A0FD10BDFEF7DC
:10ED600003FF10BD6C210020F8B5044621481E4663
:10ED7000007915460F46400701D40820F8BD002F42
:10ED80001CD0002C1AD02168022915D20C20414336
:10ED900019484258002A0FD0081842890189406852
:10EDA0004A4310186268904206D9002D04D0A94247
:10EDB00002D3A819884203D90720F8BD0E20F8BD58
:10EDC0003846FFF7EDF9002811D03046FFF7E8F993
:10EDD00000280CD06068FFF7E3F9002807D02B4625
:10EDE0003A46214604200096FEF796F8F8BD10201A
:10EDF000F8BD00006C210020C82A002010B507488B
:10EE00000078002809D0054805491C3000F008F9B1
:10EE100081B203487038FDF7D1FB10BD802000207F
:10EE2000FC24002070B501240B49600408600B49E4
:10EE300040108860094940398860094D6C602F2076
:10EE4000FCF748F9AC60074D00242F202C61FCF73B
:10EE500041F9EC7070BD000080E100E0401301401A
:10EE600000100140A421002030B50A48FF21C57DD3
:10EE70000022094C0931094B002D625007D09969D5
:10EE8000437EC268D154417E491C417630BD9869A9
:10EE900030BD000050280020002000400025004028
:10EEA0001FB501236A46137010720348019106C80A
:10EEB000684690471FBD00005028002008B5024951
:10EEC0000020009108BD00008020002010B5012125
:10EED000202805DA1A4A8140114201D1194810BD93
:10EEE0008107C90E002808DA0207120F083A9208B3
:10EEF000154B9200D218D26904E08208134B92009D
:10EF0000D2181268CA401106890F042911D20029AB
:10EF10000FD002290DD00E494C68C306DB0E01222A
:10EF20009A40002C08D0400980000B5813430B5026
:10EF300004E00448401C10BD06480260002010BDDB
:10EF4000FC06FFBC0120000000ED00E000E400E052
:10EF5000D821002000E100E010B5044801224178EA
:10EF6000514041700248FDF740FB10BD8020002059
:10EF70008C24002070B5144801245121642584603C
:10EF800022C004711049114800F03EF80E488C214F
:10EF900010300160FF212D3141600A21816000267F
:10EFA000067301460948083000F02EF80648FF2194
:10EFB00020300560F53184604160067301460348E6
:10EFC000103000F021F870BDDC2400208C200020DF
:10EFD00010B503680A6889689C1A8C4202D9591ACC
:10EFE000016010BD01210260017110BD10B54B68B8
:10EFF000026889689C1A8C4202D95118016010BDC0
:10F0000000210360017110BD0A7B002A03D049680A
:10F010000160002102E0096801600121017170476F
:10F0200010B5044600790028204602D0FFF7DEFF25
:10F0300001E0FFF7CDFF206810BDFFB50746806AED
:10F0400081B0144600283DD000253846203000907D
:10F0500033E00C20B96A68430E18B088801CFE2883
:10F0600002D90C2005B0F0BD22880299401C8854BA
:10F0700020881622401C80B2208002990A542088E1
:10F08000401C80B2208002994118308800F0EEFBCD
:10F090002188401880B22080B288002A0AD0B16846
:10F0A00000290FD0029BC018FCF76AF82088B188AD
:10F0B000401820806D1C0098EDB2007BA842C8D893
:10F0C0000020CFE70720CDE730B59BB0032118A87B
:10F0D0000172142110A8FCF77AF80024012510A869
:10F0E000109405711AA81290601C0107090F10A84E
:10F0F0001031017344738473601C0107090F10A859
:10F100001031C1730020014610A801740146244843
:10F11000FDF7FEF9002801D0FCF798FB142115A893
:10F12000FCF755F80120014618A810314170012064
:10F13000014618A8103181700020014618A8C1703E
:10F140000120014618A81031017110A81594057608
:10F15000642118A817940170114815A91838FCF7F4
:10F16000DBFF002801D0FCF771FB40216846FCF76B
:10F170002EF80CA16846FDF73BFA0120014608A8CD
:10F18000103101770020014608A841776846FDF755
:10F19000B9F8002801D0FCF759FB1BB030BD0000C6
:10F1A0008C2400204E6F7264696353656D69636FD0
:10F1B0006E647563746F720010B50020FDF7E6FB96
:10F1C000002801D0FCF742FBFDF730FB002801D0FE
:10F1D000FCF73CFB3CDF002801D0FCF737FB10BDFF
:10F1E00010B50F490028087009D0012811D0022855
:10F1F00012D0032802D14869FEF7F6FC10BD0020AA
:10F200008861C861074840780028F7D0FDF758FEAC
:10F2100010BD00F0F7F810BD00F056F810BD00006A
:10F220006C2100206C280020002803D00249C8600F
:10F23000002070470E207047C42100201CB50349F0
:10F2400001910091694660DF1CBD00008020002014
:10F2500070B50E460546144614211046FBF7B7FF5D
:10F260000120002120802161217326726572002D0A
:10F2700000D0A072002070BD10B5FCF7D9FA10BD07
:10F2800070B5002901D08C0701D0072070BD074C54
:10F290000125A16062800649636010DF0028F5D176
:10F2A00025701620FFF712FE70BD0000C42100205B
:10F2B00079F20100002803D002490861002070475C
:10F2C0000E207047C4210020F8B5164C1422606847
:10F2D0004008400060601448017851430E183769B7
:10F2E000FFF7EAFB01463846FBF720FF0546606161
:10F2F000FFF7E2FB0146F0887F1EC019FBF716FFFF
:10F3000002228542606801D1104300E090436060B2
:10F31000E1681040084303D0002000F0BBF8F8BDBE
:10F320000220FAE76C2100206C28002010B502486A
:10F330004069FEF759FC10BD6C21002010B5FFF7A5
:10F34000A9FB441EFFF7B8FB4443FFF7B5FB044994
:10F350004A69521E5043CA682146FEF74AFC10BD56
:10F360006C210020F8B510481422017851430C1884
:10F370002569FFF7A1FB0146E08822898018401922
:10F38000FBF7D4FE0F46FFF785FB461EFFF794FB05
:10F390004643E0882289F1198018044A401912690D
:10F3A000FEF727FCF8BD00006C2800206C2100202F
:10F3B00070B5FFF781FB0546FFF76CFB441EFFF7B6
:10F3C0007BFB60432946FBF7B1FEFEF70DFC70BDE9
:10F3D00070B5FFF771FB8608FFF76EFB07494969B7
:10F3E00048430446FFF756FB451EFFF765FB68439D
:10F3F00032462146FEF7FDFB70BD00006C21002067
:10F400000020704770B514481422017851430C183D
:10F41000241DFFF751FB6188104E884211D2FFF77F
:10F420004BFB61880D1AFFF747FB8208A188E06853
:10F430004018216940194919FEF7DBFBFFF73CFB37
:10F4400007E0A288E06880188A082169FEF7D1FBEE
:10F450006088F06170BD00006C2800206C210020E5
:10F4600010B505480079000703D4012000F012F818
:10F4700010BD00F003F810BD6C21002010B5044849
:10F480000822416891434160407800F003F810BDC4
:10F490006C2100200249487002498000085800474A
:10F4A0006C210020E0FA010010B50446FFF736FC9D
:10F4B0002046FCF7B5FC10BD70B50C00054602D126
:10F4C0000020FCF7C3F9002D02D10020FCF7BEF9A3
:10F4D000207828702088FF2109020840000A6870FF
:10F4E000206809020840000CA8702068000EE8702F
:10F4F00020792871207A68712089000AA871A06893
:10F50000000CE87170BD000010B5054800790007D7
:10F5100002D4FDF7C3FC10BDFFF7B0FF10BD000023
:10F520006C210020FEB51F4C00252769E068029081
:10F530006846FEF7E9FA0190FEF76EFE064601986E
:10F54000002822D000230098E16817E00E680A46E0
:10F55000864202D9301A086012E0801BF318002698
:10F560001660D668D169B446002E07D0FE18360260
:10F57000360A566066469660D56115460029E5D183
:10F580002846E160FEF7A6FE06E02846FEF7A2FE4A
:10F59000002801D1002E02D00298FDF701FD0020C5
:10F5A0002071FEBDA4210020012002490005086051
:10F5B0007047000000E200E010B50E4BD96800294A
:10F5C00006D002680C68A24204D8A21A0A60C1617F
:10F5D000D86010BD0B4604E00B46C969121B002918
:10F5E00004D00C689442F7D3A41A0C600260C16185
:10F5F000D86110BDA4210020F8B51D4DEC68002C89
:10F6000034D01C48002740682969401A0602360A8F
:10F610002068B04218D8361AC7192246107CE4690F
:10F6200000280FD0002010746B69002B07D091695F
:10F6300050699847002805D0FCF708F902E05169A5
:10F6400090698847002CE3D16978A878814206D177
:10F65000401CC0B2A870022801D10020A870044943
:10F660000006800D18310F50FFF79EFFF8BD000017
:10F67000A42100200015014010B50023184A0521DF
:10F680001846FCF731F9002801D0FCF7DFF8154ADD
:10F6900001211548FCF712F9002801D0FCF7D6F833
:10F6A0001148124A0121001DFCF708F9002801D079
:10F6B000FCF7CCF80C480E4A01210830FCF7FEF8A4
:10F6C000002801D0FCF7C2F807480A4A01210C3093
:10F6D000FCF7F4F8002801D0FCF7B8F810BD0000E2
:10F6E00064220020D9BB010058FA0100EDDE0100C0
:10F6F000FDED010059EF0100FF2107481D310022F7
:10F7000042500648828A8168895C828A521C8282C1
:10F710000348C161704700000020004050280020CD
:10F72000002500401FB500216A4611701072044880
:10F7300082680192817506C8684690471FBD000027
:10F7400050280020F0B5454D012185B049022846DA
:10F75000FFF783F801270026414C002824D0FF2121
:10F7600025312846FFF774F800281DD0FF202530EA
:10F770002E5081203B4980008860A07E002800D167
:10F780006F6002216846017037490868086003907D
:10F79000E17D68460172E0680190E675267606CC48
:10F7A0006846083C90472BE004212846FFF755F8AF
:10F7B000002825D0FF2109312846FFF749F8002805
:10F7C0001ED0FFF751FBE07D617E884218D1207E7C
:10F7D000002808D0627EE168E0752069E060267646
:10F7E000667610460AE0A07E002800D16F60812076
:10F7F0001C4980008860E675607EE168FFF750FB79
:10F80000FF211D312846FFF723F800280DD0A18ADB
:10F81000A07D814202D2FFF76FFF06E0FF211D317C
:10F820006E50002801D0FFF77DFFFF2145312846AB
:10F83000FFF70EF800280ED0FF2045302E50A07E96
:10F84000002800D02F60E07D002804D0E675607E9F
:10F85000E168FFF725FB05B0F0BD00000020004087
:10F860005028002000230040802400400870000A37
:10F870004870022070470000012181400248426820
:10F880008A434260704700005421002038B5154972
:10F89000154A488890420FD04A78144C521CD2B274
:10F8A0004A70237B934208D3091D75DF002803D0DB
:10F8B000A169002900D0884738BD00254D70217C02
:10F8C000002907D03B2176DF002803D0A169002959
:10F8D00000D0884761690029EED0684605708847E6
:10F8E00038BD0000F0200020FFFF00009C26002013
:10F8F000EFF30580C005C00D1AD0103840B20028C3
:10F9000008DA0107090F083989080C4A89008918A3
:10F91000C96904E081080A4A8900891809688007D2
:10F92000C00EC1400806800F012803D0032803D071
:10F9300002207047002070470120704700ED00E072
:10F9400000E400E042788378521CD2B2934200D1A6
:10F9500000220378934201D1002070470A70416869
:10F9600040781822504308187047FFB583B01646F8
:10F970000C9D0D9C1F46022200950194039800F0F7
:10F980000CF8002807D13B4610223146009501941F
:10F99000039800F002F807B0F0BDFFB583B007464A
:10F9A00000200C9C8646268805463AE07868A90027
:10F9B00042181188684681805188C18000226946BA
:10F9C00001A865DF002839D1684601780598814291
:10F9D00026D17046002801D0002200E002222088B3
:10F9E000891842180D998A4227D8714600290AD1F0
:10F9F000401C80B22080069A049911542088401C33
:10FA0000208001208646218806980A18694601A8A8
:10FA100065DF002812D169462088097840182080C7
:10FA20006D1C3888A842C1DC704600280AD02088A6
:10FA3000801B401E80B2FF2802D90C2007B0F0BD09
:10FA4000069988550020F9E70179002902D1007B49
:10FA5000002800D001207047E4210020042200206B
:10FA60002422002044220020010000070C25002051
:10FA70002C25002058250020110000001200000055
:10FA800013000000140000001100030041C8010031
:10FA90001200030041C801001300030041C8010027
:10FAA0001400030041C801007C260020FFFFFFFF77
:10FAB000D7E5010061DD01007DDC01001DDE0100F4
:10FAC000D3E5010031DD010079DC010015DE010024
:10FAD000CFE5010081DC010075DC01000DDE0100D5
:10FAE000B1F30100D1F301002DF3010065F3010032
:10FAF0003DF3010061F40100E9D1010095D101005D
:10FB000009F5010075DE0100E02A00200300000075
:10FB100030FB0100802000206401000030B20100B1
:10FB20004CFB0100E4210020741100001EB501000F
:10FB30004201031FFFFF0C2A0D1801000F180100DE
:0CFB40000A180103FFFFFFA11424F400C9
:040000050001B0C185
:00000001FF
