:020000040001F9
:10C00000D8380020F5C001000FC1010011C10100A6
:10C010000000000000000000000000000000000020
:10C0200000000000000000000000000013C101003B
:10C03000000000000000000015C1010017C1010050
:10C0400019C1010019C10100A5C4010019C10100F5
:10C0500019C10100000000006DC2010019C10100FA
:10C0600019C1010019C1010019C1010019C1010064
:10C0700019C1010019C1010019C1010019C1010054
:10C0800019C10100B9C3010019C1010019C10100A2
:10C09000D9C3010019C10100E1C3010019C10100A8
:10C0A00019C1010019C101000000000000000000DA
:10C0B0000000000000000000000000000000000080
:10C0C0000348854600F0A2F800480047D1F401007B
:10C0D000D8380020401E00BF00BF00BF00BF00BF17
:10C0E00000BF00BF00BF00BF00BF00BF00BFF1D155
:10C0F000704700000321094802680A4302600848AB
:10C1000002680A4302600748804707480047FEE785
:10C11000FEE7FEE7FEE7FEE7FEE70000240500403D
:10C120005405004005C40100C1C0010030B50B46F4
:10C13000014600202022012409E00D46D5409D4201
:10C1400005D31D469540491B254695404019154687
:10C15000521E002DF1DC30BD70B5002425460028AC
:10C1600001DA01244042002901DA01254942FFF7A2
:10C17000DDFFAC4200D04042002C00D0494270BDEF
:10C1800010B5431A934209D28318881803E0401E61
:10C1900001785B1E1970521EF9D210BD03460B4385
:10C1A0009B0703D009E008C9121F08C0042AFAD26D
:10C1B00003E00B780370401C491C521EF9D210BDDD
:10C1C000D2B201E00270401C491EFBD2704700222F
:10C1D000F6E710B513460A4604461946FFF7F0FF86
:10C1E000204610BD421C0178401C0029FBD1801A5A
:10C1F000704730B504460020034600E05B1C9342C4
:10C2000003D2E05CCD5C401BF8D030BD064C01256C
:10C21000064E05E0E36807CC2B430C3C98471034EE
:10C22000B442F7D3FFF750FF700A0200900A0200F1
:10C2300030B58C180278401C13071B0F01D103780E
:10C24000401C120906D10278401C03E005780D70ED
:10C25000401C491C5B1EF9D101E00B70491C521EA9
:10C26000FBD1A142E6D3002030BD0000F8B5002488
:10C27000FF260136012527460094304603F07EFB59
:10C28000002808D034484068284204D033480021B0
:10C2900030182C430160361D6D007F1CB6B2042F90
:10C2A000EBD3FF207D3003F069FB002807D02C483A
:10C2B00000210160400704432A48006900902A4F8A
:10C2C000200712D00126002526420AD02748AA00BE
:10C2D000111808690969C004C00E8903BA58890F8A
:10C2E000904776006D1C042DEED3002C30DA00242C
:10C2F0001D4E0021301940304156491C25D0077889
:10C30000BD06AD0E284601F04DFD80003658002ECA
:10C310001BD0BF090121A940154AA8008018006858
:10C32000009A8003800F114202D0022802D00CE054
:10C3300003280AD1032F05D102280AD0022128465A
:10C3400003F00CFB39462846B047641C042CCFD3BD
:10C35000F8BD0321F3E700000063004000600040E7
:10C360007C61004000050050802F002000650040E7
:10C37000000700508307FF22DB0E9A408907090E51
:10C38000994000280BDA0007000F08388308084896
:10C390009B001818C36993430B43C361704783081C
:10C3A00004489B001818036893430B4303607047CD
:10C3B00000ED00E000E400E010B506490020086050
:10C3C00048608860C860034940390860486004F0EC
:10C3D0004FF910BD4011014010B504F0E3F810BD55
:10C3E00010B507484068002807D08047002803D0D0
:10C3F0000022114600F088FA10BD02F0D5FE10BDF3
:10C400004429002010B502F01DFF002805D01F4967
:10C410001D484860C8131E4988611E49088CC0B277
:10C4200001280BD18A8C120708D10A8D1206120F2F
:10C43000042A03D18A8D1206120F0AD0012821D1B5
:10C44000888C00071ED1088D0006000F0A2804D032
:10C4500007E0114A01209060F5E78A8D1206120F5D
:10C4600005D00D280ED1888D0006000F0AD10B488B
:10C470000168012904D00A49016001680129FCD141
:10C48000C021416110BD0000DFFF07C00005004072
:10C49000006C0040C00F00F00006004000EC0640B9
:10C4A00075930000F0B53C4D012185B04902284646
:10C4B00003F073FA01270026384C002823D0FF210F
:10C4C0002531284603F064FA00281CD0FF202530CF
:10C4D0002E508120324980008860607D002800D184
:10C4E0006F600221684601702E4908680860039059
:10C4F000E17C68460172E0680190E67406CC68460B
:10C50000083C90471DE00421284603F046FA002825
:10C5100017D0FF210931284603F03AFA002810D03D
:10C5200003F048FDE07C217D88420AD1607D00282F
:10C5300000D16F6081201A4980008860207D03F05F
:10C540004FFDFF211D31284603F022FA00280DD0AF
:10C55000A07C218A884202D904F016F906E0FF2166
:10C560001D316E50002801D004F024F9FF2145311F
:10C57000284603F00DFA00280CD0FF2045302E503D
:10C58000607D002800D02F60E07C002802D0207D54
:10C5900003F026FD05B0F0BD00200040C82F0020AC
:10C5A000002300408024004030B47446641E257887
:10C5B000641CAB4200D21D46635D5B00E31830BCD7
:10C5C000184702E008C8121F08C1002AFAD17047B4
:10C5D0007047002001E001C1121F002AFBD1704703
:10C5E000FEB50F460021168804461180406B1123CA
:10C5F0001546002816D00278032E01D20C210FE038
:10C60000022038702888401C80B228803B5428883B
:10C61000401C80B228803A542888401C2880002181
:10C6200000297DD1206B002821D0844628883946F6
:10C6300002461230B04201D90C2116E08B542888F2
:10C640001023401C80B228800B542888401C28806E
:10C650000F206246125C2B88401ECA542B8840B2C1
:10C660005B1C2B800028F4DA00210029D9D1204658
:10C6700020300290807B002806D033462A46394677
:10C6800002F02CFE01007DD10298407B002806D0EC
:10C6900032462946384600F061FE010072D1A0788A
:10C6A000002821D02888001DB04201D90C2119E0B2
:10C6B000684679DF010015D129880320785428883D
:10C6C0001921401C80B2288039542888401C80B22F
:10C6D0002880C1196846008804F07CF82988401831
:10C6E0002880002100291BD1E07800281DD028884F
:10C6F00003230146E356C01CB04201D90C2112E0CD
:10C700000220785428880121401C80B228803954A6
:10C710002888401C80B228803B542888401C00E0B8
:10C7200079E028800021002975D1606800281BD09D
:10C730000023C35628880146C01CB04201D90C21F1
:10C7400010E00220785428880A21401C80B22880FA
:10C7500039542888401C80B228803B542888401CCB
:10C7600028800021002956D1208900280CD020469D
:10C770003B460622022108300196009504F0A9F8F4
:10C78000010000E048E047D1208A00280AD0204676
:10C790003B460722032110300196009504F099F8DA
:10C7A000010039D1208B00280AD020463B461522B3
:10C7B000142118300196009504F08BF801002BD15C
:10C7C000206A002806D033462A46394601F0A4FCE8
:10C7D000010021D1606A002806D033462A46394636
:10C7E00002F012FF010017D10298007B002807D049
:10C7F00033462A463946204603F075FC01000BD12A
:10C800002078002807D033462A463946204602F0D1
:10C810002FFF010000D10846FEBD10B50122022104
:10C82000002001F0EBF8002801D0072812D10722E0
:10C830000221012001F0E2F8002801D0072809D1E7
:10C8400000210A22084601F0D9F8002801D0072863
:10C8500000D1002010BD0000044948680123DB0519
:10C860001A4682438A601840C8607047000500502D
:10C8700070B50024064D06E06968E000085C0121FF
:10C8800002F07CFF641C28788442F5D3002070BD40
:10C8900010290020F8B516460C460546052A01D297
:10C8A0000720F8BD03F040F8002803D103F012F888
:10C8B0000028F6D11048002145600470C1608660F0
:10C8C00001610E4E0DE0E00041197068009088781B
:10C8D0006A46507008780A4A694602F09FFF0028AD
:10C8E000DFD12046641EE4B20028ECD1054A0021C5
:10C8F000024800F043F8F8BD10290020680A020041
:10C9000059EF0100F5E20100BFF34F8F04490348DE
:10C91000C860BFF34F8F00BFFDE700000400FA05B9
:10C9200000ED00E0014B1B68184700005C2F002061
:10C9300038B50C46A2680C235A43064B09789D581B
:10C94000054A126A00920246204608302369A84729
:10C9500038BD0000AC300020EC28002010B506499E
:10C9600014230A785A435118091DFFF7E1FF0420E8
:10C9700003F084FC10BD0000E02F0020094B9B68F1
:10C98000002B07D0002A07D0002805D00068037CC0
:10C99000002B03D008207047072070474174426184
:10C9A0000020704724290020FFB581B014460E46B0
:10C9B000900735D100271C4D002C33D003F0D8FA56
:10C9C00004986861032028702B46AC602546183413
:10C9D0000021324618204243C800401907704770B2
:10C9E000867044601419491C0329F5DBDF605F7011
:10C9F00001250E489F702D051C460560032114205B
:10CA0000FFF7B8FC0A4805600A4D0198A8600321A9
:10CA10001120FFF7AFFC68682061002005B0F0BD71
:10CA20000720FBE7AF60FBE72429002080E200E05D
:10CA300000E100E000150140FEB50D461B49174618
:10CA40008968044600292AD0002C28D0052D01D25F
:10CA50000720FEBD6069002821D0607C012820D01D
:10CA6000002603F0F9FEC0001049019089684018C3
:10CA7000694603F01BFF002815D0012101700C4905
:10CA8000446049680830E2C0084901988968411843
:10CA900068460078487003F0C3FD0020FEBD082002
:10CAA000FEBD2E46DDE70420FEBD00002429002047
:10CAB00000150140F8B5134D0446A96800291CD0A3
:10CAC000002C1AD06069002817D00026267403F0C5
:10CAD000C3FEC700A8686946381803F0E7FE0028BF
:10CAE0000DD0022101704460A868391868460078AA
:10CAF000487003F095FD3046F8BD0820F8BD0420CD
:10CB0000F8BD00002429002070B51925184C6D04CB
:10CB1000002229462068FFF78FFF002803D000225B
:10CB20001146FFF7F1FEFF21002249316068FFF74F
:10CB300083FF002803D000221146FFF7E5FE002204
:10CB40002946A068FFF778FF002803D0002211468D
:10CB5000FFF7DAFE05210022C903E068FFF76CFF4A
:10CB6000002803D000221146FFF7CEFE70BD000062
:10CB7000BC090200F0B50446007D002691B00D46C8
:10CB800000280BD008A9112008960870687B48700F
:10CB90008878F921084008A9801C88701C2101A808
:10CBA000FFF715FB694608790221084369460871B9
:10CBB000227DEF21002A02D01022104300E008401D
:10CBC0006A461071029604960596207D002800D0D2
:10CBD00008A80690012708AA0796977131486A4667
:10CBE00090840096A87B1070E87B50709078F922B2
:10CBF0001040F722801C1040EF210840B8436A46DD
:10CC00009070287B08AA107214210BA8FFF7DFFA96
:10CC100009A80B9068460C906A469786D6861787B7
:10CC20000AA80F90A088A31D0BAA01A9A2DF0028C3
:10CC300036D1A868002831D008A887711A496846FB
:10CC400081840096297C017000200146684641706D
:10CC50008078F9210840F721801C0840EF21084026
:10CC6000410849006846817010A8A96800F027FDB6
:10CC7000054614210BA8FFF7AAFA09A80B906846ED
:10CC80000C908586C686058710A80F902246E088FE
:10CC90000E320BA9A3DF002802D100E0E6810020BC
:10CCA00011B0F0BD192A00000829000010B50C4988
:10CCB0000C4803F00BFAC1B20948683800F050FA8A
:10CCC00000280BD0082809D00749884206D0074918
:10CCD000884203D000221146FFF716FE10BD000067
:10CCE000542C00200C2800200430000001340000E7
:10CCF00070B50D4692B01F216A46118000249180C4
:10CD0000002812D0C178490701D4072200E0002290
:10CD1000002A02D0104612B070BD6A4602A9FFF781
:10CD20005FFC0028F7D102AE01E000261480002D40
:10CD30000ED0E878002800D007200028EBD101AA07
:10CD40000AA92846FFF74CFC0028E4D10AAA02E011
:10CD500068460022848068468088C3B2684600889E
:10CD6000C1B2304672DFD6E770B50D46049916465B
:10CD7000040042D0002E40D0424800224271C360DD
:10CD80000161242231464048FFF7FAF900F0D0F85B
:10CD90003D49343108461038016020318160382126
:10CDA0005C38FFF714FA384A2078383A1070A078C7
:10CDB0009070E078D070607850706169206951613E
:10CDC0001061E168A068D16090601046E369A169D4
:10CDD000C3618161606A002819D01046AC300146F9
:10CDE0000C3150628160636A1B880380606A536AF9
:10CDF000808898800020536A06E00E2070BD666A25
:10CE0000B668365C0E54401C9E888642F7D8A06AED
:10CE100000281CD01C49AC3108460C388160906257
:10CE2000A36A9B888380A06A936A00881880002088
:10CE3000936A04E0A66AB668365C0E54401C9E886D
:10CE40008642F7D82C20015D0F4818380173206AFC
:10CE5000002809D00B4814301062216A49884180AB
:10CE6000206A116A008808806068002804D005489C
:10CE7000801D506060685060034829463838FFF7CD
:10CE800037FF70BD50280020282D002010B50188E4
:10CE90001A4C102917D0002211291AD0192911D1A2
:10CEA000807900280ED1607901281BD002281FD07C
:10CEB00003281FD0042805D12271E16810460029FB
:10CEC00000D0884710BD017D0129FBD180882081D9
:10CED00010BD6270808821898842F9D1012002E06A
:10CEE0002169ECE7022000F04BF80028F8D110BDD2
:10CEF0000320F8E7032020710420F4E750280020E5
:10CF000010B5022801D003280ED1084C2078002843
:10CF10000AD000202070607900F032F8002803D099
:10CF20002169002900D0884710BD0000502800204A
:10CF300010B507210148FFF74AF910BD6828002005
:10CF400010B50D480078012814D10C4C60780028E9
:10CF500010D16079002802D074DF00280BD10120A5
:10CF60006070607900F00CF8002803D02169002976
:10CF700000D08847002010BD282D00205028002018
:10CF8000F0B5754C87B06071002506A8069502F0D3
:10CF90009FFD0127082806D000286FD10698002899
:10CFA00002D02770D4E00695FFF7C2FF6B4E707871
:10CFB000002802D06079012805D0B07800280AD076
:10CFC0006079022807D1E168002903D0E7700820C2
:10CFD000884700E0E5706079012808D17078002862
:10CFE00009D05D48193002F005FD002803D06079B2
:10CFF000022802D00CE002206071B078002805D031
:10D000005548193002F0F6FC002801D10320607168
:10D01000307B002804D16079032801D1042060719D
:10D02000307E002804D16079042801D16571257112
:10D03000E16800290AD06079032801D0042805D1CD
:10D040003078002802D06078002818D0A570182108
:10D050006846FFF7BCF868460570019505720395B0
:10D06000607901280FD0022816D03C4D24352F4678
:10D070005C3F03281CD004285ED13BE069E0A77028
:10D0800007208847E3E73448183001906846077066
:10D0900045820582277152E02F4869461830019079
:10D0A0000F7030894882B08808820220207146E0E3
:10D0B000B08A69464882308A08822848243003F0C2
:10D0C00075FC002805D03078002802D06078002850
:10D0D00001D003202FE00220694608720420039546
:10D0E000F8701E4800213838FFF702FE002830D1C2
:10D0F000052020E0B08B69460882308C48821748B2
:10D10000243003F053FC002805D03078002802D0EA
:10D110006078002801D004200DE0022069460872E2
:10D1200004200395F8700D4800213838FFF7E0FD22
:10D1300000280ED1062020716079002803D06846AF
:10D1400073DF002805D1E168002901D020798847E4
:10D15000002007B0F0BD000050280020282D00203E
:10D1600073B586B004002FD06A46217C127F002060
:10D17000914227D000250126684604950682458203
:10D1800007A80590E188608A04AAA4DF002819D1C5
:10D190006846007F2074608A0D49884216D0207D41
:10D1A000002813D00095019502950395E088694603
:10D1B00008808E70488A888004A8029005980390A1
:10D1C000608AA6DF08B070BD0E20FBE70820F9E7F3
:10D1D000FFFF000038B50D46040019D0002D17D010
:10D1E000286820600020C043608228792075FF20D5
:10D1F000207401206946887006480880221D01209D
:10D20000A0DF002803D129462046FFF7B3FC38BD34
:10D210000E2038BD0F18000038B5002824D0002992
:10D2200022D00A88102A1AD0112A1AD0502A1BD1CB
:10D23000027D002A18D0CA884389891D9A4213D1D9
:10D240000A8B022A10D10268002A0DD0CB7E8C7E78
:10D2500019022143C907C90F07D0002106E08988B8
:10D2600001E00021C943418238BD01216B4619709C
:10D270006946904738BD000070B5064601461C223D
:10D280000E48FEF77DFF0E4C002525703168002901
:10D2900006D00822201DFEF773FF201D7ADF02E072
:10D2A0000748001D7BDF002807D1401E60806570A5
:10D2B000044A00210448FFF761FB70BD142E0020D2
:10D2C00070280020F5070200080A0200F8B5214D79
:10D2D000028800271E4EEC89102A15D01E49112AFB
:10D2E00021D0122A2DD0502A1CD1C288801DA242E2
:10D2F00018D1028B022A15D1C27E837E10021843F8
:10D30000C007C00F0CD112E081887180014610481F
:10D31000082216310C30FEF733FF7770002C01D154
:10D3200000F046FFF8BD0020C043708077700868A9
:10D33000FFF7C0FB0028F5D0A9690029F2D0884783
:10D34000F8BD811D024808220C30FEF719FFE7E7FF
:10D3500070280020142E0020080A02007CB5054623
:10D3600008880C460930904201D90C207CBD6846E3
:10D3700071DF0028FAD121880820685420881B21F9
:10D38000401C80B220802954208800A9401C80B213
:10D390002080401906220131FEF7F2FE20886946FE
:10D3A000801D80B220800978002900D001212954F5
:10D3B0002088401C208000207CBD00007FB50446F2
:10D3C0000120694688714A4888804A4A01A901209B
:10D3D000A0DF00287ED1228825463C35002A09D0CE
:10D3E00044482B46801C00904348616800F0E2FCF2
:10D3F00000287BD12289002A0AD03E482B460A30D9
:10D4000000903D48E168401F00F0D4FC00286DD139
:10D41000228A002A0AD037482B461230009036481C
:10D420006169001F00F0C6FC00285FD1228B002A32
:10D430000AD030482B461A3000902F48E169801EF0
:10D4400000F0B8FC002851D1228C002A0AD02948CB
:10D450002B46223000902848616AC01E00F0AAFCCA
:10D46000002843D1228D002A0AD022482B462A3098
:10D4700000902148E16A401E00F09CFC002835D154
:10D48000216B00290ED002A803F048F819482B465A
:10D49000323000901848082202A9801F00F08AFC50
:10D4A000002823D1606B00280BD012492B463A315B
:10D4B0000091027901681048401C00F07BFC0028B4
:10D4C00014D1A16B002910D002A802F0D7FA0948A4
:10D4D000423000E00AE0009007482B46072202A9EC
:10D4E000273000F067FC002800D1002004B070BD98
:10D4F0000A18000084280020292A000070B504467C
:10D5000001F026F82146134800F08EF81148214614
:10D510001838FFF781FE2046FFF7D8FE204600F0BE
:10D520009DF920880C4D102802D011280ED10AE058
:10D53000072000F085FA002803D000221146FFF7EB
:10D54000E3F9A08801E00020C043A8802046FFF74F
:10D550009DFC70BD042C00200028002030B505463D
:10D5600019488BB004681949641C0460288C8842EF
:10D5700027D0142104A8FEF72AFE00206A469084D2
:10D58000200E1074200C5074200A9074D474002162
:10D5900000910191029103912889108001209070DF
:10D5A000918009A8029004A80390288C1146A6DF58
:10D5B000002804D16946898C002900D00C200BB0CA
:10D5C00030BD0820FBE70000D0280020FFFF00004E
:10D5D00038B5044608682060087960710020C043AF
:10D5E0000D4620840020222108554C21085301209B
:10D5F000694688700B480880A21D0120A0DF002822
:10D600000FD12946204601F035FD002809D1A86830
:10D61000002805D02946204600F08CF8002800D1CB
:10D62000002038BD0D18000038B50A88102A17D020
:10D63000112A17D0502A18D1CA888389891D9A4285
:10D6400013D10A8B022A10D10268002A0DD0CB7E9A
:10D650008C7E19022143C907C90F07D0002106E0BB
:10D66000898801E00021C943018438BD01216B464E
:10D6700019706946904738BD70B504460546403478
:10D68000A0890E46142807D12622A918881EFEF765
:10D6900077FDA089401EA08180B241004919401C3D
:10D6A000A0818E8470BD20308170704770B50446B3
:10D6B0000D460846FEF796FD2080656070BD0A782D
:10D6C0000270497841700220704700001CB50023A9
:10D6D00048221549082002F005FE002803D0002248
:10D6E0001146FFF711F900200090019001206946D2
:10D6F0000870684660DF002803D000221146FFF75B
:10D7000003F90A4802F0E4FD002803D00022114684
:10D71000FFF7FAF8064802F0FDFD002803D00022CA
:10D720001146FFF7F1F81CBDA42B0020FDD4010029
:10D730000D050200F0B58FB00D4607461C21684666
:10D74000FEF745FD684601780220014368460170F6
:10D7500000240194039404940594012608A80694D7
:10D7600086701549684601840794E97B0177297C16
:10D770004177807FF9210840F721801C0840EF2184
:10D7800008404108490068468177142109A8FEF73E
:10D790001EFD08A8099007A80A9068468685C485DA
:10D7A0000686A8680D903B46F888103309AA69469A
:10D7B000A2DF0FB0F0BD0000382A00001CB50446FF
:10D7C00081786A460C4802F097F9002812D16078F7
:10D7D0001C21484309491C2340181A46694602F097
:10D7E0004BFA064806494C30807A80000A58214698
:10D7F000684690471CBD0000E4280020102F002040
:10D80000200A02007CB50C460146134D0020296019
:10D81000002C1BD0694600F0BDF8002814D101A9E6
:10D82000012000F0B7F800280ED1684601790020E9
:10D83000002901D0022104E069460978002902D0BC
:10D840000B21217000E02070002804D169680029B4
:10D8500001D1FEF7E2FF7CBD4828002010B51D4C29
:10D860000188606810290DD011290AD1401E60601E
:10D8700007D1FEF7D2FF002803D02168002900D08D
:10D88000884710BD002821D100210122084600F060
:10D89000B5F8002801D0072812D107220221012063
:10D8A00000F0ACF8002801D0072809D10422022199
:10D8B000002000F0A3F8002801D0072800D10020A4
:10D8C000002803D02168002900D088476068401CE8
:10D8D000606010BD4828002010B5032000F00AFA4F
:10D8E000002801D0062800D1002010BDF8B506465A
:10D8F00000252C46244802E0641C042C3AD2A200E5
:10D900008258B242F8D1042C34D21F481F4F0C3831
:10D9100000291DD0012902D002292BD126E0610067
:10D9200061187D5CCF19797800290CD018490A223A
:10D93000496880685143164A521CFFF77DF8002859
:10D9400001D1134846701248B9781430015511E0DE
:10D950008068FFF7AFF80E481430015D60002018B2
:10D96000C0198078814205D1054603E06000201887
:10D97000C0194578002D05D005480169002901D05E
:10D9800028468847F8BD0000D8090200C42C0020B2
:10D990003028002004280CD2074A1269074B800067
:10D9A0001B5C01209840904300D0012008700020AB
:10D9B00070470020FAE7000000050050D809020077
:10D9C00010B5042806D0072810D00A2801D102F08B
:10D9D0003BFC10BD08481321808876DF08E0002852
:10D9E000F7D000221146FEF78FFF10BDFFF7A8FA0F
:10D9F0000828F4D110BD00000028002030B50346EF
:10DA00000020042B0ED2012A02D101290CD00022C1
:10DA10005C000A4D1C19631900290DD0012907D09B
:10DA2000022907D0072030BD1A460D32D2B2EFE7E7
:10DA30002A5530BD5A7030BD9A7030BDC42C0020BC
:10DA400010B505490246097A0020C90702D01046E0
:10DA500000F054F810BD00003028002070B50E46CC
:10DA6000204905464E608D6000200A61A9071ED539
:10DA70000024012211462046FFF7C0FF641C042C3D
:10DA800002D20028F5D012E0002810D1720804213B
:10DA90001548FEF7FFFE002809D1FEF7E9FE002831
:10DAA00005D11148114A00211438FEF767FFE90734
:10DAB00006D00F220E4952058A600023CB608A618E
:10DAC00000280DD108480B4A00211C38FEF756FFEC
:10DAD000002805D10448084A01211838FEF74EFFF6
:10DAE00070BD000030280020E809020031DD01008F
:10DAF0000005005031F3010059C80100FEB57A4E0F
:10DB00000721F368890599430293736800939D0088
:10DB100004465B1900200122019352050746734D0C
:10DB20002300FEF741FD180D1515364654667B8718
:10DB30007F87909A9F9F9F9F9FC9CFD2D99A9A140F
:10DB40000F21029A49059143A960EF603770FEBD2D
:10DB5000A960EF6068680F2149054840800209D537
:10DB6000AA60EF60022C02D1E120C0000AE07D2013
:10DB7000400107E0EA60AF60022C01D1C82001E05B
:10DB8000FF20913034706421FEF7D0FA00994143B0
:10DB90002DE0A960EF6068680F21490548408002C8
:10DBA00004D5AA60EF6019204001EBE7EA60AF609E
:10DBB000E4E7A960EF6068680F21490548408002EA
:10DBC00002D5AA60EF60D2E7EA60AF60D8E7A9604B
:10DBD000EF6068680F2149054840800202D5AA60BD
:10DBE000EF6001E0EA60AF6034700098410000220D
:10DBF0000FE0A960EF6068680F2149054840800286
:10DC000002D5AA60EF6001E0EA60AF60347000996D
:10DC1000002237480068FEF70FFFFEBDA960EF60E5
:10DC2000EA601DE068680122920511468143A960FF
:10DC300010400FE068680122920511468143A960F7
:10DC40001040E860E3E76868012189050A468243DD
:10DC5000AA600840E8600199C9E70F21490540E042
:10DC6000AF602DE022484068FEF724FF11210A1B17
:10DC700001D0002807D00F22F16852051140A96099
:10DC8000EF60F760FEBD0121C905F160012A0CD9E2
:10DC90001046C82148436421FEF748FA7168002203
:10DCA000414313484068FEF7C7FE0F21F26849055B
:10DCB0000A40EA60AF60FEBD0F214905A960EF6030
:10DCC0003470FEBD07218905A8E70D214905A9602B
:10DCD000EF600121890504E00321C905A960EF6017
:10DCE0008910E960BCE700003028002000050050E2
:10DCF000CC090200F0B500210B4E0C4F03252D047A
:10DD00008A00B2589200D3191A6801248C4004404A
:10DD100000D00324AA43240414431C60491C042992
:10DD2000EED30020F0BD0000D8090200000700502B
:10DD300010B500780221FFF7D9FD10BD0022D243B3
:10DD4000830004490428CA5002D3081820300277FF
:10DD500070470000802F0020F0B50024E443002A23
:10DD600001D0002300E00423002A01D0042600E0B3
:10DD700008260B4D04E09F00EF597F1C04D05B1C6C
:10DD8000B342F8D32046F0BD2E185CB22036347072
:10DD90009E00A951002AF5D1E91820310877F1E752
:10DDA000802F0020024909182020085670470000E3
:10DDB000802F0020FFB58FB01E4615460F0001D002
:10DDC000012000E00020002804D100221146104666
:10DDD000FEF79AFD002D01D0012000E00020002870
:10DDE00004D1002211461046FEF78EFD1C21684624
:10DDF000FEF7EDF969460878022108436946087084
:10DE000000240194039404940594012008A9069425
:10DE1000887069460F98088407943078087770787E
:10DE20004877887FF9210840F721801C0840EF21BE
:10DE300008404008400069468877142109A8FEF789
:10DE4000C6F908A8099007A80A9069468D85CC856F
:10DE50000D8604480D9709AA0088189BA2DF13B00D
:10DE6000F0BD000084280020F8B53E481422017857
:10DE700051430C18E0680C2148433A492769CC31DA
:10DE80004018058941890091241D466801F0C2FEB1
:10DE900001463846FEF74AF9002931D000200099A2
:10DEA000A2884D436188AE198918CD1900222E49E8
:10DEB00000280A6109D001F0ADFE6188884221D0B6
:10DEC000B54202D1A08800281CD0A068022819D031
:10DED00001F0A0FE0146A088C019FEF727F9224CE8
:10DEE0008808E06001F096FE01462846FEF71EF91C
:10DEF000002911D00020B5422FD000280ED02CE0F0
:10DF00000120CCE701F086FE01463846FEF70EF907
:10DF100015494861032021E00120ECE7ADB2B7B21A
:10DF200001F078FE01463846FEF700F9064601F09A
:10DF300071FE01462846FEF7F9F8864201D1781BAA
:10DF400009E001F067FE064601F064FE014628463E
:10DF5000FEF7ECF8701A80082061022002F08EF9BA
:10DF6000F8BD0000E02F0020EC28002010B5074885
:10DF700014220178514308180079042802D000F0D7
:10DF800059F810BD012002F079F910BDE02F0020F2
:10DF900010B50B481422017851430818094AC1886A
:10DFA00011620079012806D0032801D0042801D18C
:10DFB000FFF75AFF10BD012002F060F910BD00000C
:10DFC000E02F0020EC28002014225043054A0021B5
:10DFD00080180171C18001220161C260416101812B
:10DFE00070470000E02F0020F8B5104D069E6C78B9
:10DFF0000A2C19D02F783C190A2C00D30A3C14277C
:10E000007C4364192071626103C92161E060E3808F
:10E0100026816878401C687005480078002801D186
:10E02000FFF7B6FF0020F8BD0420F8BDE02F002068
:10E03000EC28002010B50D4C14212078484301191C
:10E040000020091DFEF774FC2078FFF7BDFF607803
:10E05000401E60702078401CC0B220700A2801D198
:10E0600000202070002002F009F910BDE02F0020F0
:10E07000F8B52349C86800283ED00768214844689D
:10E080000E69A01B05022D0AC878ED1C002814D1CA
:10E0900001201D49000448601B49403948601B4964
:10E0A000400008601A4908601A49012008602F20C2
:10E0B000FEF710F812490120C870BD4200D23D465B
:10E0C000A81900020F4B000A403318600D4A51682E
:10E0D000001B091B0902090A0002000AC91C81422F
:10E0E00009D9506818602F20FDF7F4FF0120074977
:10E0F000400480390860F8BD01F03AFFF8BD000027
:10E1000024290020001501404013014080E200E076
:10E1100000E100E000100140F8B517880646B81D80
:10E1200014460D46984201D90C20F8BD30880628C7
:10E1300013D31923DB011A49984201D988420CD123
:10E140007288062A09D39A4201D98A4205D18842A7
:10E1500005D08A4203D0904201D9072000E0002078
:10E160000028E2D10520E85520881221401C80B209
:10E17000208029542088401C80B22080411930889A
:10E1800002F028FB2188401880B220804119708855
:10E1900002F020FB2188401820800020F8BD0000FC
:10E1A000FFFF000010B500221146FEF7ADFB10BDC9
:10E1B000F8B5164801F038F8144D00260C3D144C03
:10E1C000002807D0616900291CD001206A46107020
:10E1D000684616E02878002805D06169002911D02A
:10E1E000684606700DE0687800280DD0A1680948DF
:10E1F00000220068FEF720FC002803D0A169002956
:10E2000000D088472E70F8BD6168F0E77C280020B8
:10E21000142E0020080A0200F0B594460446082097
:10E220000A4A0B4F00230C255D43ED19AE7A0E42CE
:10E2300009D0944202D02889A04203D160460360ED
:10E240000020F0BD05205B1CEDD0F0BDFFFF0000FD
:10E25000502F00200C214843064910B501224018D8
:10E260008272911E0181FF21C1720721FDF7AFFF6C
:10E2700010BD0000502F002010B5134C207900076E
:10E280001FD46069401C6061E068002801D0042050
:10E2900004E000F0FBFF002803D0022002F02CF97C
:10E2A00010BD2069002809D06068C10701D0032093
:10E2B000F4E70121084360600020EFE7FFF756FE16
:10E2C00010BD02F00DF910BDEC28002010B5084972
:10E2D0004868020708D4820702D50122104348602B
:10E2E000022002F009F910BD02F0FAF810BD00009A
:10E2F000EC280020F8B50025144F23E07968E800E9
:10E3000044182078012631463A698140114217D0DD
:10E310008A433A6101F0D4FA02462078F9688640CF
:10E320000E40114681408E420AD16178012901D008
:10E33000012100E0002151406268002A00D090478E
:10E340006D1CEDB238788542D8D3F8BD1029002075
:10E35000FEB50E46044681786A46234801F0CCFBA0
:10E36000002826D160780C21204F4843C019807ABC
:10E3700040061FD4022E1DD0012E1DD01C4DA078AA
:10E380001C2148431B49002341181C226846A8470A
:10E39000002813D0022E0CD020780C2148431349BA
:10E3A0000C314018807A144980000A58214668468A
:10E3B0009047FEBD114DE2E7114DE0E7022EF8D087
:10E3C00060780C214843C019817ABF2211408172C4
:10E3D00060781C2148430549403941181C231A46DE
:10E3E0006846A847D8E70000E4280020502F002006
:10E3F000650402004C2E0020100A0200B9FE010044
:10E40000DDFD010070B505461048114A00241C23AB
:10E4100063439B189B7EFF2B03D0641C072CF6D311
:10E4200070BD0878022809D01C2060438018FD22A6
:10E43000827607221030FDF7A3FE04E01C20604323
:10E440008018FE2181762C70002070BD4380000072
:10E450004C2E0020F7B505260F4D07460024002F4F
:10E460000AD01C2060434019072239461030FDF7BE
:10E47000C0FE002807D00AE01C2060434019018B31
:10E480000298814203D101980026046002E0641CD6
:10E49000072CE4D33046FEBD4C2E00207CB505464B
:10E4A00081B26A46074801F027FB040008D17421B5
:10E4B000684601F04BFB040002D1284601F0A6FAA1
:10E4C00020467CBDE428002010B5100003D00022B7
:10E4D0001146FEF719FA002010BD00001FB569466D
:10E4E000087301F09DFB002803D000221146FEF7BF
:10E4F0000BFA03A800F02EFA002803D000221146E0
:10E50000FEF702FA01A805210130FDF760FE6A4618
:10E51000507901210843E1221040DF220C301040E5
:10E520006A465071072090711020D0710648009003
:10E5300011716946054800F04DFB002803D0002208
:10E540001146FEF7E1F91FBDC9E4010002280020D1
:10E55000F0B58DB00446FF25002002950C90F148DF
:10E56000007800284BD0F04F3868002847D0684624
:10E5700000F0E2F9002803D000221146FEF7C4F9AA
:10E58000201D04902A2069468882FF20002688707A
:10E590000E700196E44D20880C3D10280ED0A08806
:10E5A00001AA0221FFF738FE002807D101980C21AB
:10E5B00041434919C97A6A469170507020881322E4
:10E5C000172872D00FDC10281BD011285CD013281C
:10E5D0006CD0142813D101980C2148434019C07AFB
:10E5E000FF287AD095E0D149182874D01C2873D020
:10E5F000522804D1B87A80000958684688470DB07F
:10E60000F0BDCB4F01AA01213846FFF705FE0028D7
:10E610001DD004200028F2D111206946087301980A
:10E6200048700C225043A188401901810221817257
:10E630000722A11DFDF7A4FD607DC1070ED0410892
:10E64000B8480830405CFF280FD002900DE0019AD6
:10E650000C2302215A4352199172DBE73A4602A970
:10E66000A01DFFF7F7FE00280DD101980C225043A2
:10E6700040190299C172827A08231A43827268464D
:10E680008170FFF79BF838E101980C21484341194C
:10E69000887AFD2210408872010708D5C0090FD082
:10E6A00000216846FFF754FE0AE090E042E0684629
:10E6B0008078FF2804D001F0A9F9FF20694688700E
:10E6C00001980C2250431021401981721220694692
:10E6D000087312E101E0D4E00DE1E28902A9002013
:10E6E000FFF7B8FE00280DD101980C2250434019C5
:10E6F0000299C172827A08231A4382726846817035
:10E70000FFF75CF801980C2148434019C07AFF28B4
:10E7100006D001981C21484383494C3940180C907D
:10E7200001981C21484383494218A08800230C9972
:10E7300082DF64E768460273019B0C20584341194D
:10E74000887A042210438872C87AFF282FD01620B6
:10E75000694608732420434373481A213038181837
:10E760000830FDF734FD01980C2148434019817AA7
:10E7700040221143817201980C22002142430991E9
:10E780005219D27A1C235A436A4B0B91D2180A921F
:10E790001C2250431A46C4328018079108910690F3
:10E7A000A08806AB3A1D7FDF0028C2D1A5E002A8F1
:10E7B000FFF728FE002801D00646DCE769460298EC
:10E7C000887001990C2251434919C872D3E7787AAD
:10E7D0000C2140084000787201986F460246484379
:10E7E000411984468B7AFB2003408B7214203873C6
:10E7F000A079002804D0C87AFFF750FEA6797CE003
:10E80000E079400779D5B878FF2876D008273B43D0
:10E810008B72E37A9B0708D51C2403466343454C5F
:10E820001B199C7E640864009C76CB7AFF2B64D015
:10E830006346EB5C022B10D01C2250433D4C072258
:10E8400000191030FDF79CFC684680781C21484375
:10E850000019817EFD2211400DE01C214A433249FE
:10E860004C3951184A8A1C214843324940180283C6
:10E87000817E49084900817601216846FFF768FDDD
:10E880003BE0A0790209012A23D10007000F0128EB
:10E890001FD101980C2242435219927A120718D5BF
:10E8A000242148432049303940181A210830FDF707
:10E8B0008EFC16206946087301980C2148434019C4
:10E8C000817A602211438172787A0221084378723A
:10E8D0000FE001980C2250434019827A80231A439A
:10E8E000827215206A461073B87A8000095868460B
:10E8F0008847002601E068460273324603A968464D
:10E90000FEF710F86846007B122800D077E60198E1
:10E910000C2141434919897A0129F7D0FFF79AFC64
:10E920006DE60000D42800205C2F0020300A020091
:10E93000FFFF00004C2E0020002806D0FF210170B0
:10E9400041708170C170002070470148704700001D
:10E950000E800000F0B585B004003FD000202D4AA5
:10E9600005460C214143555089184D728D72401C4B
:10E97000F7D000263046FFF76DFC761CFAD025480C
:10E9800024213038FDF723FC0026FF27304601F014
:10E990003DF821488755761C072EF7D37420694629
:10E9A00088800720C8801D481B49009008316846B0
:10E9B00001F0B6F900280FD1174E0120083E307043
:10E9C000207800280CD069468888C988484381B2DD
:10E9D0003046103001F0BAF805B0F0BD1048FBE742
:10E9E000104F00240C48A1B202AA083001F084F8AC
:10E9F000002809D11C206043C01900231C2202A951
:10EA000001F03AF9002801D03570E5E7641C072CC5
:10EA1000E8D3E1E75C2F0020DC28002029EA010090
:10EA20000E8000004C2E0020FFB565488FB00068B6
:10EA30001F460D4600287CD01898742879D80126E6
:10EA40006846FFF779FF002803D000221146FDF742
:10EA50005BFF00206946087008711898069700242B
:10EA60000590A1B20DAA574801F046F8002806D13A
:10EA700008220DA90F98FDF7BCFB002815D0641CD7
:10EA8000072CEED368468478FF2C52D0032D0FD08C
:10EA90004D481C21381AFDF749FB07281FD204A84E
:10EAA0000290119800280CD015E068468470E9E7C0
:10EAB0001898742803D040206946087164E020202B
:10EAC000FAE701203F49A04010394968084000D0CA
:10EAD000012000286BD0204601F082FEEFE7384885
:10EAE0001C214C38381AFDF721FB002822D034486D
:10EAF00024213038381AFDF719FB0100334831D092
:10EB000040216A46117132498F4252D02E4AA100EB
:10EB10001C3A5158B9424AD1012604A90022029157
:10EB20000C2151430918C97A8C422BD16846427096
:10EB30002AE03CE004A802902020694608710020E9
:10EB400048700A901E480C300B905838079088780F
:10EB50001C2148431C494018089007A8069018201B
:10EB6000059011E030216A46117100215170012198
:10EB7000D170807A800707D4144824212438FDF707
:10EB800026FB01E0521CCBD0002E10D0032D10D05C
:10EB900069460879022D10D00221084369460871A0
:10EBA00004A8029001A96846119AFDF7BBFE13B0B4
:10EBB000F0BD694608790321EFE70121EDE7000088
:10EBC0005C2F0020E42800204C2E0020502F002035
:10EBD0000C0A020070B5064618480D460078002859
:10EBE0000ED01749002E0ED0002D0CD0286800281A
:10EBF00009D0144C2168002907D011480A3870BD8B
:10EC00000F48801F70BD084670BD20600522691D39
:10EC1000201DFDF7B5FA2879A072207A022140085C
:10EC200040000843FB2210402072E0790123184382
:10EC300008431040E0710020307070BDD4280020DF
:10EC40000E8000005C2F002010B50E4A0023517882
:10EC50009478A14212D0491CC9B25170022900D146
:10EC600053705178074B8900183359580160106967
:10EC700008180002000A1061012010BD0360002086
:10EC800010BD00002429002010B5002803D0112851
:10EC900002D0FDF763FE10BD02480822416811430F
:10ECA000416010BDEC28002010B51C4C2078214696
:10ECB0004968012806D0022829D0032812D1080764
:10ECC00017D513E0080711D41548142201785143D1
:10ECD0000818C188A28B891A0904090CC18002D0C6
:10ECE00001F0C2FB10BDFFF7A5F910BD00F080FCDC
:10ECF00010BD6069401C606100F0C8FA002803D0B4
:10ED0000207801F0BBFA10BDFFF730F910BD607834
:10ED1000044980000858804710BD0000EC280020FE
:10ED2000E02F0020540A020010B528DFFFF7ACFFE7
:10ED300010BD10B529DFFFF7A7FF10BD0EB51120DC
:10ED4000694608720A2213A102A87CDF002803D0BA
:10ED500000221146FDF7D8FD114878DF002803D0C6
:10ED600000221146FDF7D0FD0020009006216A46E2
:10ED7000019011804121C90051809080FF20913085
:10ED8000D08068467ADF002803D000221146FDF7C4
:10ED9000BBFD0EBD4E6F726469635F48524D00004B
:10EDA000410300000020704700207047002070479A
:10EDB000F8B54778054639462420414325480C22BA
:10EDC00057430B18234A002658682432BA18B6460F
:10EDD0003446844600280CD0977A3846FF0908D07C
:10EDE000470606D41E461B4863469BB24458083665
:10EDF0009E46184F10892437234672463146A9DFB4
:10EE00000B2809D168780C2101244843C0190089D6
:10EE1000234672463146A9DF0F4E002800D0304607
:10EE2000012C13D168780C214843C01900890B4A82
:10EE3000A7DF00280AD00A49884208D0082806D04F
:10EE4000891C884203D0112801D00020F8BD30462B
:10EE5000F8BD00002C2F002041800000FFFF0000C3
:10EE60000230000070B50C46014660782422084D3F
:10EE700050434019382300F0FFFE002807D1617885
:10EE80002422514349194A68521C00D14A6070BD7E
:10EE90002C2F0020F3B589B00C461A2069468883D0
:10EEA00060780C2103274843224D3B4640190089D6
:10EEB00007AA6946AADF002838D160782421484390
:10EEC0006E1A801969468A8B0830FDF792F900287E
:10EED000607807D0242148438119496800290DD062
:10EEE000154D0CE00C2141434919897A89071DD43D
:10EEF000242148438019FDF76AF917E00F4D375078
:10EF00006846828B6078242148438019426060788B
:10EF10004843801969460830FDF732F960782421AA
:10EF200048438119382324220998A84700200BB0B0
:10EF3000F0BD0000502F0020B9FE0100DDFD0100F2
:10EF400010B5FFF735FF10BD10B5FFF78BFF10BDF3
:10EF500010B5FFF79FFF10BDF8B50746104E01240E
:10EF6000BC403068FDF7A6FD00280DD10D4D286985
:10EF7000204207D1384600F0A3FC0028E86804D0FE
:10EF8000204303E0A0432861F8BDA043E86028695E
:10EF9000002220432861A9683068FDF74DFDF8BDC7
:10EFA000680A02001029002070B51B4D287900075F
:10EFB0002ED41A481422017851430C18266900F007
:10EFC00029FE0146E0882289761E80188019FDF707
:10EFD000ADF829690024002909D06969814206D168
:10EFE000EC606868012108436860002005E000F0DB
:10EFF0004DF9002804D00220EC6001F07DFA70BDCC
:10F000002869002801D00320F7E7FEF7AFFF70BDA5
:10F0100001F066FA70BD0000EC280020E02F00200F
:10F0200010B5104CA06881B2401CA0600E48FEF7DD
:10F0300095FA00280BD0082809D00C49884206D040
:10F040000B49884203D000221146FDF75DFC0321E5
:10F05000A068FDF76BF8002901D0012000E0002036
:10F06000207010BD00280020042C00200430000077
:10F0700001340000F0B500240646601C95B000077E
:10F08000000F08AA10300C941074087B5074907C08
:10F09000F9273840801C0D4690741C2105A8FDF707
:10F0A00096F86A46107D1021084310750CA8069446
:10F0B0000A9008940994012108AA0B9491761748A4
:10F0C0006A4610870D94687B08AA1075A87B507556
:10F0D000907DF7223840801C1040EF2210400843FA
:10F0E00008AA907514216846FDF771F80EA80090E3
:10F0F0000DA801900FAA0021304600F011F86A46D1
:10F1000010811420548190810FA804903346F08818
:10F11000083305A9A2DF15B0F0BD0000372A0000B2
:10F12000F7B542790025002A00D004252222135C7D
:10F130000222002B00D01543CBB2FF2907D90122B0
:10F140001543029A090A53709170032602E002994E
:10F1500002264B7007464037B989002901D010219B
:10F160000D43002416E0B31C142B09D9B989091BDF
:10F170004A006100091824302431FDF701F80CE041
:10F18000029A610009189219898C1170090A51704C
:10F19000DEB2641CB989A142E5DCB889001BB881E4
:10F1A000029805703046FEBDF8B51E4E3078002836
:10F1B00037D03069002807D00025F068002805D036
:10F1C0000024002D04D013E00125F6E70124F8E720
:10F1D000684651DF052806D0002806D000221146D7
:10F1E000FDF792FB04E0012502E0316900988847B1
:10F1F000002C12D1708869460880B06861DF05284C
:10F2000006D0002806D000221146FDF77DFB04E061
:10F21000012402E0F168B0688847002DD1D0002CAD
:10F22000CFD0F8BD44290020054940880A88904283
:10F2300004D34988884201D80120704700207047D4
:10F24000742800201049088CC0B2012817D1888C7E
:10F25000000714D1088D0006020F03D18A8D120613
:10F26000120F0ED0000F012803D18A8D1206120F43
:10F2700007D0032803D1888D0006000F01D000209D
:10F280007047012070470000C00F00F070B50E48B5
:10F290001422017851430C18256900F0BBFC01468B
:10F2A000E08822896D1E80184019FCF73FFF074A4D
:10F2B0005169814206D3814202D11069002801D0F0
:10F2C000002070BD012070BDE02F0020EC28002040
:10F2D000800701D0002070470120704730B51488A6
:10F2E000E51C9D4201D90C2030BD02250D55138827
:10F2F0001C245B1C9BB21380CC5413885B1C9BB2F8
:10F300001380012807D0022807D0032807D004283B
:10F3100007D0072030BD002004E0012002E0CD54DA
:10F3200001E00320C8541088401C1080002030BD2C
:10F3300010B50448017AC90702D00078FEF7DEFB59
:10F3400010BD000030280020F0B52A4FF8683C7846
:10F35000844642E0B968E000431819783AE0182280
:10F360004A435868491C80189A78C9B28A4200D129
:10F3700000210278022A02D0032A2BD126E0FA6863
:10F3800045681646104603E0A84204D00246C0690C
:10F3900000281FD0F8E700281CD0824209D1F56967
:10F3A000FD60002D05D1144E0125B56000263E619B
:10F3B0003D710568C069D06100280BD00268521900
:10F3C000026007E00274C069F86001E0F86800229A
:10F3D0000028F7D158788842C1D12046641EE4B293
:10F3E0000028B7D1F968614501D00120F0BD0020A7
:10F3F000F0BD00002429002000100140F8B50546AA
:10F4000031480027C168009106784EE02E48F1008F
:10F4100080680C1843E0002D02D02846ED691FE0FB
:10F420002078182141436268401CC0B251182070F6
:10F43000A278904200D127700A784868012A30D11A
:10F44000027C002A2DD18A684260CA6882600A69FB
:10F45000C260496981611C490979002900D047606F
:10F46000194A416812698C46891A0902174B090A20
:10F47000994202D28268891807E06146511A09024E
:10F480008268090A8A4202D9511A016000E00760C5
:10F490004760012187600174C76101F0C9F8002D40
:10F4A000B9D1207861788842B5D13046761EF6B25F
:10F4B0000028ABD10448C1680098814201D00120E6
:10F4C000F8BD0020F8BD000024290020FFFF7F00C8
:10F4D0009AB001F00FF93F4A3F490320FEF7BEFA08
:10F4E000002803D000221146FDF70EFA69460020DD
:10F4F000FEF788F9002803D000221146FDF704FA30
:10F500006846007802285AD0002018A90870FEF733
:10F51000DDF818A90878FEF7E1FFFFF70FFC3821A6
:10F5200001A8FCF754FE02206946087101248C7181
:10F530000620C87103258D822848069024210FA833
:10F54000FCF745FE10A90C72FF202D30002413900B
:10F55000B42000941490224B0FAA214601A8FDF775
:10F5600003FC002803D000221146FDF7CDF900F07E
:10F57000FFFD00F053FD1C216846FCF728FE052026
:10F58000C00301900F2000040290009469461548C2
:10F590000D738089C8810C74134805901348069038
:10F5A0006846FDF769FE002803D000221146FDF7EA
:10F5B000ABF9FDF7A9FA0320FDF7E2FC02E0012018
:10F5C000A3E748DF0028FCD000221146FDF79CF994
:10F5D000F7E70000C1D90100CD0C0000242800206D
:10F5E000ABF90100042C0020D1F90100A5E10100D4
:10F5F00010B504480822416891434160007800F04A
:10F600003DFE10BDEC28002070B505460E468088F2
:10F6100014461188021D8A18801C9A4201D8FE28BF
:10F6200001D90C2070BD401C70542088FF21401C63
:10F6300080B2208031542088401C80B22080811903
:10F64000288801F0C7F82188401880B22080AA8855
:10F65000002A09D0A968002908D08019FCF790FD7C
:10F660002088A98840182080002070BD072070BD28
:10F67000F8B50F46017814460546012902D168788D
:10F68000002806D02088821C9A422DD8012902D059
:10F6900006E00720F8BD69784118891C994223D8F3
:10F6A000181A801E86B2684606802188B81C081881
:10F6B00069467DDF0028EDD12978022905D1684609
:10F6C0000088B04201D809200AE00820012905D1AC
:10F6D0006978B14202D86A46118001E069460E801D
:10F6E00069460988FE2901D90C20F8BD2288491CE9
:10F6F000B9542188491C89B22180785420886946F0
:10F70000401C20800988401820800020F8BD00207F
:10F710007047002070470020704700008207D30E1A
:10F72000FF229A408907090E10B5994000280BDA8C
:10F7300003071B0F083B9C080C4BA400E318DC6973
:10F7400094430C43DC6107E08408094BA400E318F0
:10F750001C6894430C431C60C106C90E01208840FC
:10F76000044908600449086010BD000000ED00E095
:10F7700000E400E080E200E000E100E0F3B581B0E9
:10F780000F46019800F062F9012500281E4E0198ED
:10F7900017D0FEF707FB80192030007F800903286F
:10F7A00002D0012806D007E01848006901998D4071
:10F7B000284201D1022100E00321019800F0CEF897
:10F7C000FEBD00F04FF90028FAD00198FEF7EAFAE2
:10F7D00004468000C11D0E4AF9318018026989B2C1
:10F7E0002A4302610B48081800210160002FE7D06E
:10F7F0000198FEF7D7FA800030580028E0D006487C
:10F80000A5404560FEBD0000802F0020000500508F
:10F81000006500400060004000630040FEB5054602
:10F8200023480C464019202141560027C81713468B
:10F83000401C01D0082738E0E27819462846FEF738
:10F840008BFA0646401C2FD0A078002807D0194814
:10F85000A9000818016802229143016007E0002115
:10F860006378284600910A46019100F065F8E07837
:10F87000002810D01048B2001018217802690F4BF0
:10F880001A400261EA06D20C8907890B0A43016912
:10F890000A43026109E00648227880192030017F7E
:10F8A00092011143017700E004273846FEBD0000B5
:10F8B000802F00200007005000650040FFE0FCFFA3
:10F8C00003490969C140C807C00F00D00120704733
:10F8D0000005005070B5124D2879002801D008208D
:10F8E00070BD0F4A0020403A411E13182033401CBF
:10F8F000C0B219702028F8D300242046FEF71EFA63
:10F90000641CE4B2082CF8D303210620FFF706FF9D
:10F9100001200449C007486001202871002070BD03
:10F92000C02F00200063004002480079002800D06A
:10F9300001207047C02F002030B552000A439900C3
:10F94000039C0A432102049D0A4329040A430249F5
:10F9500080004018026030BD000700508200064859
:10F960001018026803231B049A430260026809040A
:10F970000A43026070470000000700500349401826
:10F980000068012800D0002070470000006000409F
:10F990004058002800D0012070470322120280182E
:10F9A0004068084000D00120704710B500280BD0F7
:10F9B000032808D10220FEF743F8002803D00022D4
:10F9C0001146FCF7A1FF10BD00F03EFC10BD000089
:10F9D00010B50078002809D105483B21808876DFE2
:10F9E000002803D000221146FCF78EFF10BD000056
:10F9F000002800200021425C002A01D0012070472D
:10FA0000491C0629F7D300207047000070B5054651
:10FA10001C200D4968434418204611300621FCF78C
:10FA2000D6FB20461021FCF7D2FBFF202074A076E5
:10FA30000020C0432083284600F0D2FE024A002066
:10FA4000A9001C3A505070BD4C2E002004490818E3
:10FA500020214156042901DB012070470020704716
:10FA6000802F00200449081820214156042901D282
:10FA70000120704700207047802F002070B50D00D6
:10FA8000044601D0012000E00020002804D100221B
:10FA900011461046FCF738FF002C01D0012000E091
:10FAA0000020002804D1002211461046FCF72CFF4C
:10FAB0002878207069886170090AA170A988E170AE
:10FAC000090A2171E8886071000AA07170BD000008
:10FAD00007490979490701D408207047002804D054
:10FAE000044949780160002070470E2070470000EB
:10FAF000EC280020E02F002030B5124B1B795B076B
:10FB000001D4082030BD002805D0002A03D00468A5
:10FB1000002C10D101E00E2030BD0B4D2B68002BC6
:10FB200009D02B89406859434018698959436B684B
:10FB3000C918814201D8072030BD146050600020F0
:10FB400030BD0000EC280020AC300020FEB504469B
:10FB500025480E460079400701D40820FEBD002C40
:10FB600003D02068002834D101E00E20FEBD1F4DD7
:10FB7000286800282DD06889298948436968411878
:10FB80006068814225D9FFF7A3FB00280FD0606889
:10FB9000019021680C2251434D1969680091401A67
:10FBA00029890F46FCF7C2FA002912D101E0102082
:10FBB000FEBD39463046FCF7B9FA002909D1002EBE
:10FBC00007D06889009947430198C919801988426C
:10FBD00001D90720FEBD0020024600903346214691
:10FBE0000320FEF701FAFEBDEC280020AC30002017
:10FBF00010B507484469601C06D000F00BF80146B8
:10FC00002046FCF793FA10BD01200007406910BDA3
:10FC10000010001001200007006980B2704700004A
:10FC200070B5002512482C46057045702046FEF739
:10FC3000CBF9641C0A2CF9D30E4C6580FFF7D8FF72
:10FC4000861EFFF7E7FF4643094A0020A660CC3234
:10FC500065610C214143555089180D814D81401C2F
:10FC6000F7D02570A5610420E5616060002070BDBB
:10FC7000E02F0020EC280020FFB5274881B0007954
:10FC80001E4615460C46400702D4082005B0F0BDBC
:10FC9000002C06D00198002803D02068002815D138
:10FCA00001E00E20F2E71D4F386800280ED0798958
:10FCB00038897A68414389186268914206D9002DD3
:10FCC00004D0A84202D3A919814201D90720DDE757
:10FCD0000198FFF7FDFA00281BD03046FFF7F8FA2D
:10FCE000002816D06068FFF7F3FA002811D060688A
:10FCF0002A4681190198FCF743FA009520680C21E7
:10FD000048433D58002202212046019BA84700207D
:10FD1000BCE71020BAE70000EC280020AC3000203F
:10FD2000F8B52C4E044630790D46400701D4082022
:10FD3000F8BD002C20D0002D1ED0206800281BD03C
:10FD4000FFF768FF0146A088814213D3102811D322
:10FD5000E08800280ED0FFF74BFF471EFFF75AFF41
:10FD60004743E188A088B268414389188F4201D394
:10FD7000800703D00720F8BD0E20F8BD7088012849
:10FD800025D005C50C21144B4843C1184A60226890
:10FD90001A50A0880881E0884881FFF73BFF05469C
:10FDA000FFF738FFA188E288401E514340182946DA
:10FDB000FCF7D2F90446FFF72DFF0146B068614316
:10FDC0000818B0607088401C70800020F8BD0420C6
:10FDD000F8BD0000EC280020AC300020F8B5044647
:10FDE00020481E46007915460F46400701D40820DA
:10FDF000F8BD002F05D0002C03D02068002815D1B5
:10FE000001E00E20F8BD1849086800280ED04A8984
:10FE100008894968424351186268914206D9002D09
:10FE200004D0A84202D3A919814201D90720F8BD04
:10FE30003846FFF74DFA002811D03046FFF748FA50
:10FE400000280CD06068FFF743FA002807D02B4643
:10FE50003A46214601200096FEF7C6F8F8BD10206C
:10FE6000F8BD0000EC280020AC30002010B5114A8D
:10FE700001461078002811D004280FD0022916D08E
:10FE800003290BD11179090711D49169491C91619A
:10FE9000032908D0022802D000F0F0F910BD5078F4
:10FEA00000F02AFB10BD0D20FCF758FD10BDFEF739
:10FEB000FBFE10BDEC280020F8B5044620481E4685
:10FEC000007915460F46400701D40820F8BD002FE1
:10FED00005D0002C03D02068002815D101E00E20A9
:10FEE000F8BD1849086800280ED04A890889496871
:10FEF000424351186268914206D9002D04D0A842AD
:10FF000002D3A919814201D90720F8BD3846FFF76D
:10FF1000DFF9002811D03046FFF7DAF900280CD0BD
:10FF20006068FFF7D5F9002807D02B463A462146EE
:10FF300004200096FEF758F8F8BD1020F8BD000028
:10FF4000EC280020AC30002010B5074800780028CD
:10FF500009D0054805491C3000F0B8F881B20348C3
:10FF60007038FDF789FB10BD00280020742C00209C
:10FF700070B501250B49680408600B494010886082
:10FF8000094940398860094C65602F20FCF7A2F8C8
:10FF9000A560074C00252F202561FCF79BF8E57034
:10FFA00070BD000080E100E04013014000100140FE
:10FFB00024290020FF210748093100224250064829
:10FFC00081690648037DC268D154017D491C0175D1
:10FFD000704700000020004000250040C82F00208E
:10FFE0001FB501216A46117010720448C168019161
:10FFF0000021C17406C8684690471FBDC82F002065
:020000040002F8
:1000000010B5044801224178514041700248FDF783
:100010004AFB10BD00280020042C002070B51448B5
:10002000012451216425846022C0047110491148C3
:1000300000F040F80E488C2110300160FF212D3176
:1000400041600A2181600026067301460948083094
:1000500000F030F8064808492030056084604160AF
:10006000067301460348103000F024F870BD00000C
:10007000542C00200C280020A086010010B5026836
:100080000B688968D41A8C4202D9511A016010BDDC
:1000900001210360017110BD10B54A6803688968C9
:1000A000D41A8C4202D95918016010BD0021026097
:1000B000017110BD0A7B002A03D04968016000214C
:1000C00002E00968016001210171704710B5044622
:1000D00000790028204602D0FFF7DEFF01E0FFF79D
:1000E000CDFF206810BDFFB581B001981446806A2D
:1000F0000F4600283AD0019800262030009030E0CA
:100100000198816A0C2070430D18A888801CFE2875
:1001100002D90C2005B0F0BD2188401C78542088FD
:100120001621401C80B2208039542088401C80B2A7
:100130002080C119288800F04DFB2188401880B22A
:100140002080AA88002A09D0A96800290ED0C019E9
:10015000FCF716F82088A98840182080761C0098A3
:10016000F6B2007BB042CBD80020D3E70720D1E71E
:1001700030B59BB0032018A90872142110A8FCF711
:1001800026F80024012510A910940D711AA81290C8
:10019000601C0007000F10300873601C00074C73D0
:1001A000000F8C731030C873002008742048FDF7CE
:1001B0000FFA002803D000221146FCF7A5FB1421FA
:1001C00015A8FCF704F818A91120487088700020C1
:1001D000C870401C0007000F1030087110A915945A
:1001E0000D76642018A917940870114815A91838BD
:1001F000FCF7F0FF002803D000221146FCF784FB37
:1002000040216846FBF7E3FF0AA16846FDF74EFA76
:1002100008A911200877002048776846FDF7CEF836
:10022000002803D000221146FCF76EFB1BB030BD46
:10023000042C00204E6F7264696353656D69636FAF
:100240006E647563746F720010B50020FDF7F8FBE3
:10025000002803D000221146FCF756FBFDF73CFBBB
:10026000002803D000221146FCF74EFB3CDF00289B
:1002700003D000221146FCF747FB10BD10B50F4913
:100280000028087009D0012811D0022812D00328B4
:1002900002D14869FEF748FD10BD00208861C861A1
:1002A000074840780028F7D0FDF772FE10BD00F037
:1002B000DBF810BD00F038F810BD0000EC2800207D
:1002C000E02F002010B508461146C046C04610BDBC
:1002D000002803D00249C860002070470E207047F4
:1002E0004429002010B5002901D08C0701D0072037
:1002F00010BD064CA16062800549636010DF0028D4
:10030000F6D10120207016202EDF10BD44290020D8
:10031000C5020200002803D002490861002070478E
:100320000E20704744290020F8B5174E142270683B
:100330004008400070601548017851430D182F693E
:10034000FFF768FC01463846FBF7F0FE0446706193
:10035000FFF760FC0146E8887F1EC019FBF7E6FE48
:10036000014602208C42716801D1014300E08143C3
:1003700071600140F068014303D0002000F0BCF838
:10038000F8BD0220FAE70000EC280020E02F002052
:1003900010B502484069FEF7C7FC10BDEC280020EC
:1003A00010B5FFF725FC441EFFF734FC4443FFF76C
:1003B00031FC04494A69521E5043CA682146FEF77F
:1003C000B8FC10BDEC280020F8B5104814220178C4
:1003D00051430C182569FFF71DFC0146E08822896E
:1003E00080184019FBF7A2FE0E46FFF701FC471EDE
:1003F000FFF710FC4743E0882289B9198018044AA6
:1004000040191269FEF795FCF8BD0000E02F0020AE
:10041000EC28002070B5FFF7FDFB0546FFF7E8FB71
:10042000441EFFF7F7FB60432946FBF77FFEFEF70C
:100430007BFC70BD70B5FFF7EDFB8508FFF7EAFBAD
:100440000749496948430446FFF7D2FB461EFFF7B8
:10045000E1FB70432A462146FEF76BFC70BD0000AD
:10046000EC2800200020704770B514481422017851
:1004700051430C18241DFFF7CDFB6188104E8842B4
:1004800011D2FFF7C7FB61880D1AFFF7C3FB820883
:10049000A188E0684018216940194919FEF749FC14
:1004A000FFF7B8FB07E0A288E06880188A08216996
:1004B000FEF73FFC6088F06170BD0000E02F002077
:1004C000EC28002010B505480079000703D401206E
:1004D00000F012F810BD00F003F810BDEC28002069
:1004E00010B504480822416891434160407800F00B
:1004F00003F810BDEC280020024948700249800032
:1005000008580047EC280020400A020010B50446B5
:10051000FFF7ACFC2046FCF7F3FC10BD70B50C00F7
:10052000054601D0012000E00020002804D100226F
:1005300011461046FCF7E8F9002D01D0012000E03B
:100540000020002804D1002211461046FCF7DCF9F7
:10055000207828702088FF2109020840000A68706E
:10056000206809020840000CA8702068000EE8709E
:1005700020792871207A68712089000AA871A06802
:10058000000CE87170BD000010B505480079000747
:1005900002D4FDF7EBFC10BDFFF7A2FF10BD000079
:1005A000EC280020FEB51D4800250669C0680190B2
:1005B0006846FEF749FB0746FEF7C6FE0446002FD5
:1005C0001ED00020009916E022688A4202D9501AF3
:1005D000206014E0891A101800222260E269DA60B3
:1005E000E2682746002A06D033181B021B0A636004
:1005F000A260FD612546094BDC68002CE4D1012492
:100600002846FEF7FBFE002801D1002C02D00198FD
:10061000FDF72EFD014900200871FEBD24290020B0
:1006200001200249000508607047000000E200E078
:1006300010B50E4CE168002906D002680B689A429A
:1006400004D89A1A0A60C161E06010BD0C4604E04B
:100650000C46C969D21A002904D00B689342F7D31B
:100660009B1A0B600260C161E06110BD242900206B
:10067000F8B51E4FFC68002C36D01D480026416896
:100680003869081A05022D0A2068A8421AD82D1ABE
:1006900086192246107CE469002811D000201074CD
:1006A0007B69002B09D0916950699847002807D0D1
:1006B00000221146FCF728F902E051699069884749
:1006C000002CE1D17978B878814206D1401CC0B2C3
:1006D000B870022801D10020B87004490006800DCE
:1006E00018310E50FFF79CFFF8BD000024290020B0
:1006F0000015014010B500231D4A05211846FCF7DE
:1007000053F9002803D000221146FCF7FDF8194ADE
:1007100001211948FCF732F9002803D000221146C4
:10072000FCF7F2F81448154A0121001DFCF726F9E0
:10073000002803D000221146FCF7E6F80E48104AC4
:1007400001210830FCF71AF9002803D000221146D5
:10075000FCF7DAF808480B4A01210C30FCF70EF9D7
:10076000002803D000221146FCF7CEF810BD00008F
:10077000DC290020ADCC0100BC09020021F0010001
:1007800049FF010001000200FF2007491D3000223F
:100790000A500648028A8168895C028A521C0282D9
:1007A0000348C1617047000000200040C82F0020AE
:1007B000002500401FB500216A46117010720448E0
:1007C00082680192817406C8684690471FBD000088
:1007D000C82F00200870000A4870022070470000EF
:1007E00001218140024842688A434260704700000C
:1007F000D428002038B5154A1549508888420FD0B2
:100800005178144C491CC9B25170237B8B4208D3D8
:10081000111D75DF002803D0A169002900D0884789
:1008200038BD00255570217C002907D03B2176DF9B
:10083000002803D0A169002900D0884761690029F8
:10084000EED068460570884738BD0000702800204B
:10085000FFFF0000142E002012494868C005C00D9B
:1008600019D0103840B2002807DA0207120F083AF0
:10087000920892005118C96904E081080A4A890067
:10088000891809688007C00EC1400806800F01283A
:1008900003D0032803D002207047002070470120B6
:1008A0007047000000ED00E000E400E0427883784B
:1008B000521CD2B2934200D100220378934201D15C
:1008C000002070470A704168407818225043081889
:1008D0007047FFB583B016460C9D0D9C1F46022243
:1008E00000950194039800F00CF8002807D13B46CE
:1008F0001022314600950194039800F002F807B0E9
:10090000F0BDFFB583B00C9C8646002620881F46AC
:100910003546029036E070464068A90040180188CC
:100920006A4691804088D0800022694601A865DF30
:10093000002835D1684602780598824221D1002EE0
:1009400001D0002100E002212088511842180D99A1
:100950008A4224D8002E08D1401C80B220800499FD
:1009600039542088401C2080012680B2C219694673
:1009700001A865DF002813D169462088097840184E
:1009800020806D1C70460088A842C4DC002E0BD06D
:1009900021880298081A401E80B2FF2802D90C2034
:1009A00007B0F0BD029978540020F9E701790029D9
:1009B00002D1007B002800D0012070475C29002074
:1009C0007C2900209C290020BC290020842C0020A8
:1009D000A42C0020D02C00201100000012000000E8
:1009E000130000001400000011000300EDD8010006
:1009F00012000300EDD8010013000300EDD8010040
:100A000014000300EDD80100F42D0020FFFFFFFFCC
:100A100017F7010095EE0100ADED010051EF010067
:100A200013F7010065EE0100A9ED010049EF010097
:100A30000FF70100B1ED0100A5ED010041EF01004C
:100A4000150402003504020091030200C9030200EC
:100A5000A1030200C5040200CDE2010079E2010019
:100A600089050200A9EF0100B83000200300000052
:100A7000900A0200002800205C01000030C2010042
:100A8000AC0A02005C2900207C0F0000D2C50100E6
:100A90004201031FFFFF0C2A0D1801000F1801006F
:0C0AA0000A180103FFFFFF150024F400FA
:040000050001C0C175
:00000001FF
